{
  "contractName": "Account",
  "abi": [
    {
      "constant": true,
      "inputs": [],
      "name": "contributions",
      "outputs": [
        {
          "name": "",
          "type": "uint256"
        }
      ],
      "payable": false,
      "stateMutability": "view",
      "type": "function"
    },
    {
      "constant": true,
      "inputs": [],
      "name": "name",
      "outputs": [
        {
          "name": "",
          "type": "string"
        }
      ],
      "payable": false,
      "stateMutability": "view",
      "type": "function"
    },
    {
      "constant": false,
      "inputs": [
        {
          "name": "spender",
          "type": "address"
        },
        {
          "name": "value",
          "type": "uint256"
        }
      ],
      "name": "approve",
      "outputs": [
        {
          "name": "",
          "type": "bool"
        }
      ],
      "payable": false,
      "stateMutability": "nonpayable",
      "type": "function"
    },
    {
      "constant": true,
      "inputs": [],
      "name": "totalSupply",
      "outputs": [
        {
          "name": "",
          "type": "uint256"
        }
      ],
      "payable": false,
      "stateMutability": "view",
      "type": "function"
    },
    {
      "constant": true,
      "inputs": [],
      "name": "gpo",
      "outputs": [
        {
          "name": "",
          "type": "address"
        }
      ],
      "payable": false,
      "stateMutability": "view",
      "type": "function"
    },
    {
      "constant": true,
      "inputs": [],
      "name": "slopeD",
      "outputs": [
        {
          "name": "",
          "type": "uint256"
        }
      ],
      "payable": false,
      "stateMutability": "view",
      "type": "function"
    },
    {
      "constant": false,
      "inputs": [
        {
          "name": "from",
          "type": "address"
        },
        {
          "name": "to",
          "type": "address"
        },
        {
          "name": "value",
          "type": "uint256"
        }
      ],
      "name": "transferFrom",
      "outputs": [
        {
          "name": "",
          "type": "bool"
        }
      ],
      "payable": false,
      "stateMutability": "nonpayable",
      "type": "function"
    },
    {
      "constant": true,
      "inputs": [],
      "name": "marketCap",
      "outputs": [
        {
          "name": "",
          "type": "uint256"
        }
      ],
      "payable": false,
      "stateMutability": "view",
      "type": "function"
    },
    {
      "constant": true,
      "inputs": [],
      "name": "decimals",
      "outputs": [
        {
          "name": "",
          "type": "uint8"
        }
      ],
      "payable": false,
      "stateMutability": "view",
      "type": "function"
    },
    {
      "constant": true,
      "inputs": [],
      "name": "slopeN",
      "outputs": [
        {
          "name": "",
          "type": "uint256"
        }
      ],
      "payable": false,
      "stateMutability": "view",
      "type": "function"
    },
    {
      "constant": true,
      "inputs": [],
      "name": "spreadD",
      "outputs": [
        {
          "name": "",
          "type": "uint256"
        }
      ],
      "payable": false,
      "stateMutability": "view",
      "type": "function"
    },
    {
      "constant": true,
      "inputs": [],
      "name": "beneficiary",
      "outputs": [
        {
          "name": "",
          "type": "address"
        }
      ],
      "payable": false,
      "stateMutability": "view",
      "type": "function"
    },
    {
      "constant": true,
      "inputs": [],
      "name": "metadata",
      "outputs": [
        {
          "name": "",
          "type": "bytes32"
        }
      ],
      "payable": false,
      "stateMutability": "view",
      "type": "function"
    },
    {
      "constant": false,
      "inputs": [
        {
          "name": "spender",
          "type": "address"
        },
        {
          "name": "addedValue",
          "type": "uint256"
        }
      ],
      "name": "increaseAllowance",
      "outputs": [
        {
          "name": "",
          "type": "bool"
        }
      ],
      "payable": false,
      "stateMutability": "nonpayable",
      "type": "function"
    },
    {
      "constant": false,
      "inputs": [],
      "name": "withdraw",
      "outputs": [
        {
          "name": "",
          "type": "bool"
        }
      ],
      "payable": false,
      "stateMutability": "nonpayable",
      "type": "function"
    },
    {
      "constant": true,
      "inputs": [],
      "name": "exponent",
      "outputs": [
        {
          "name": "",
          "type": "uint256"
        }
      ],
      "payable": false,
      "stateMutability": "view",
      "type": "function"
    },
    {
      "constant": true,
      "inputs": [
        {
          "name": "owner",
          "type": "address"
        }
      ],
      "name": "balanceOf",
      "outputs": [
        {
          "name": "",
          "type": "uint256"
        }
      ],
      "payable": false,
      "stateMutability": "view",
      "type": "function"
    },
    {
      "constant": true,
      "inputs": [],
      "name": "symbol",
      "outputs": [
        {
          "name": "",
          "type": "string"
        }
      ],
      "payable": false,
      "stateMutability": "view",
      "type": "function"
    },
    {
      "constant": true,
      "inputs": [],
      "name": "currentPrice",
      "outputs": [
        {
          "name": "",
          "type": "uint256"
        }
      ],
      "payable": false,
      "stateMutability": "view",
      "type": "function"
    },
    {
      "constant": true,
      "inputs": [
        {
          "name": "_tokens",
          "type": "uint256"
        }
      ],
      "name": "priceToBuy",
      "outputs": [
        {
          "name": "",
          "type": "uint256"
        }
      ],
      "payable": false,
      "stateMutability": "view",
      "type": "function"
    },
    {
      "constant": false,
      "inputs": [
        {
          "name": "spender",
          "type": "address"
        },
        {
          "name": "subtractedValue",
          "type": "uint256"
        }
      ],
      "name": "decreaseAllowance",
      "outputs": [
        {
          "name": "",
          "type": "bool"
        }
      ],
      "payable": false,
      "stateMutability": "nonpayable",
      "type": "function"
    },
    {
      "constant": false,
      "inputs": [
        {
          "name": "to",
          "type": "address"
        },
        {
          "name": "value",
          "type": "uint256"
        }
      ],
      "name": "transfer",
      "outputs": [
        {
          "name": "",
          "type": "bool"
        }
      ],
      "payable": false,
      "stateMutability": "nonpayable",
      "type": "function"
    },
    {
      "constant": true,
      "inputs": [
        {
          "name": "_tokens",
          "type": "uint256"
        }
      ],
      "name": "returnForSell",
      "outputs": [
        {
          "name": "",
          "type": "uint256"
        }
      ],
      "payable": false,
      "stateMutability": "view",
      "type": "function"
    },
    {
      "constant": true,
      "inputs": [],
      "name": "spreadN",
      "outputs": [
        {
          "name": "",
          "type": "uint256"
        }
      ],
      "payable": false,
      "stateMutability": "view",
      "type": "function"
    },
    {
      "constant": true,
      "inputs": [
        {
          "name": "",
          "type": "uint256"
        }
      ],
      "name": "services",
      "outputs": [
        {
          "name": "",
          "type": "uint256"
        }
      ],
      "payable": false,
      "stateMutability": "view",
      "type": "function"
    },
    {
      "constant": true,
      "inputs": [],
      "name": "reserve",
      "outputs": [
        {
          "name": "",
          "type": "uint256"
        }
      ],
      "payable": false,
      "stateMutability": "view",
      "type": "function"
    },
    {
      "constant": false,
      "inputs": [
        {
          "name": "_tokens",
          "type": "uint256"
        },
        {
          "name": "_maxSpend",
          "type": "uint256"
        }
      ],
      "name": "buy",
      "outputs": [
        {
          "name": "",
          "type": "bool"
        }
      ],
      "payable": true,
      "stateMutability": "payable",
      "type": "function"
    },
    {
      "constant": false,
      "inputs": [
        {
          "name": "_tokens",
          "type": "uint256"
        },
        {
          "name": "_minReturn",
          "type": "uint256"
        }
      ],
      "name": "sell",
      "outputs": [
        {
          "name": "",
          "type": "bool"
        }
      ],
      "payable": false,
      "stateMutability": "nonpayable",
      "type": "function"
    },
    {
      "constant": true,
      "inputs": [
        {
          "name": "owner",
          "type": "address"
        },
        {
          "name": "spender",
          "type": "address"
        }
      ],
      "name": "allowance",
      "outputs": [
        {
          "name": "",
          "type": "uint256"
        }
      ],
      "payable": false,
      "stateMutability": "view",
      "type": "function"
    },
    {
      "constant": true,
      "inputs": [],
      "name": "curServiceIndex",
      "outputs": [
        {
          "name": "",
          "type": "uint256"
        }
      ],
      "payable": false,
      "stateMutability": "view",
      "type": "function"
    },
    {
      "constant": true,
      "inputs": [
        {
          "name": "_tokens",
          "type": "uint256"
        }
      ],
      "name": "amountToReserve",
      "outputs": [
        {
          "name": "",
          "type": "uint256"
        }
      ],
      "payable": false,
      "stateMutability": "view",
      "type": "function"
    },
    {
      "constant": true,
      "inputs": [],
      "name": "reserveAsset",
      "outputs": [
        {
          "name": "",
          "type": "address"
        }
      ],
      "payable": false,
      "stateMutability": "view",
      "type": "function"
    },
    {
      "payable": true,
      "stateMutability": "payable",
      "type": "fallback"
    },
    {
      "anonymous": false,
      "inputs": [
        {
          "indexed": false,
          "name": "newMetadata",
          "type": "bytes32"
        }
      ],
      "name": "MetadataUpdated",
      "type": "event"
    },
    {
      "anonymous": false,
      "inputs": [
        {
          "indexed": true,
          "name": "requestor",
          "type": "address"
        },
        {
          "indexed": true,
          "name": "serviceIndex",
          "type": "uint256"
        },
        {
          "indexed": false,
          "name": "message",
          "type": "string"
        }
      ],
      "name": "ServiceRequested",
      "type": "event"
    },
    {
      "anonymous": false,
      "inputs": [
        {
          "indexed": true,
          "name": "from",
          "type": "address"
        },
        {
          "indexed": true,
          "name": "to",
          "type": "address"
        },
        {
          "indexed": false,
          "name": "value",
          "type": "uint256"
        }
      ],
      "name": "Transfer",
      "type": "event"
    },
    {
      "anonymous": false,
      "inputs": [
        {
          "indexed": true,
          "name": "owner",
          "type": "address"
        },
        {
          "indexed": true,
          "name": "spender",
          "type": "address"
        },
        {
          "indexed": false,
          "name": "value",
          "type": "uint256"
        }
      ],
      "name": "Approval",
      "type": "event"
    },
    {
      "anonymous": false,
      "inputs": [
        {
          "indexed": true,
          "name": "buyer",
          "type": "address"
        },
        {
          "indexed": false,
          "name": "amount",
          "type": "uint256"
        },
        {
          "indexed": false,
          "name": "paid",
          "type": "uint256"
        }
      ],
      "name": "Bought",
      "type": "event"
    },
    {
      "anonymous": false,
      "inputs": [
        {
          "indexed": true,
          "name": "buyer",
          "type": "address"
        },
        {
          "indexed": false,
          "name": "contribution",
          "type": "uint256"
        }
      ],
      "name": "Contributed",
      "type": "event"
    },
    {
      "anonymous": false,
      "inputs": [
        {
          "indexed": true,
          "name": "seller",
          "type": "address"
        },
        {
          "indexed": false,
          "name": "amount",
          "type": "uint256"
        },
        {
          "indexed": false,
          "name": "reserveReturned",
          "type": "uint256"
        }
      ],
      "name": "Sold",
      "type": "event"
    },
    {
      "constant": false,
      "inputs": [
        {
          "name": "name",
          "type": "string"
        },
        {
          "name": "symbol",
          "type": "string"
        },
        {
          "name": "decimals",
          "type": "uint8"
        }
      ],
      "name": "initialize",
      "outputs": [],
      "payable": false,
      "stateMutability": "nonpayable",
      "type": "function"
    },
    {
      "constant": false,
      "inputs": [
        {
          "name": "_reserveAsset",
          "type": "address"
        },
        {
          "name": "_beneficiary",
          "type": "address"
        },
        {
          "name": "_slopeN",
          "type": "uint256"
        },
        {
          "name": "_slopeD",
          "type": "uint256"
        },
        {
          "name": "_exponent",
          "type": "uint256"
        },
        {
          "name": "_spreadN",
          "type": "uint256"
        },
        {
          "name": "_spreadD",
          "type": "uint256"
        },
        {
          "name": "_preMint",
          "type": "uint256"
        },
        {
          "name": "_metadata",
          "type": "bytes32"
        },
        {
          "name": "_name",
          "type": "string"
        },
        {
          "name": "_symbol",
          "type": "string"
        },
        {
          "name": "_gasPriceOracle",
          "type": "address"
        }
      ],
      "name": "initialize",
      "outputs": [],
      "payable": false,
      "stateMutability": "nonpayable",
      "type": "function"
    },
    {
      "constant": false,
      "inputs": [
        {
          "name": "_reserveAsset",
          "type": "address"
        },
        {
          "name": "_beneficiary",
          "type": "address"
        },
        {
          "name": "_slopeN",
          "type": "uint256"
        },
        {
          "name": "_slopeD",
          "type": "uint256"
        },
        {
          "name": "_exponent",
          "type": "uint256"
        },
        {
          "name": "_spreadN",
          "type": "uint256"
        },
        {
          "name": "_spreadD",
          "type": "uint256"
        },
        {
          "name": "_preMint",
          "type": "uint256"
        },
        {
          "name": "_name",
          "type": "string"
        },
        {
          "name": "_symbol",
          "type": "string"
        },
        {
          "name": "_gasPriceOracle",
          "type": "address"
        }
      ],
      "name": "initialize",
      "outputs": [],
      "payable": false,
      "stateMutability": "nonpayable",
      "type": "function"
    },
    {
      "constant": false,
      "inputs": [
        {
          "name": "_price",
          "type": "uint256"
        }
      ],
      "name": "addService",
      "outputs": [],
      "payable": false,
      "stateMutability": "nonpayable",
      "type": "function"
    },
    {
      "constant": false,
      "inputs": [
        {
          "name": "_serviceIndex",
          "type": "uint8"
        }
      ],
      "name": "removeService",
      "outputs": [],
      "payable": false,
      "stateMutability": "nonpayable",
      "type": "function"
    },
    {
      "constant": false,
      "inputs": [
        {
          "name": "_metadata",
          "type": "bytes32"
        }
      ],
      "name": "updateMetadata",
      "outputs": [],
      "payable": false,
      "stateMutability": "nonpayable",
      "type": "function"
    },
    {
      "constant": false,
      "inputs": [
        {
          "name": "_serviceIndex",
          "type": "uint256"
        },
        {
          "name": "_message",
          "type": "string"
        }
      ],
      "name": "requestService",
      "outputs": [],
      "payable": false,
      "stateMutability": "nonpayable",
      "type": "function"
    },
    {
      "constant": false,
      "inputs": [
        {
          "name": "_target",
          "type": "address"
        },
        {
          "name": "_data",
          "type": "bytes"
        }
      ],
      "name": "proxy",
      "outputs": [
        {
          "name": "",
          "type": "bool"
        }
      ],
      "payable": true,
      "stateMutability": "payable",
      "type": "function"
    },
    {
      "constant": true,
      "inputs": [],
      "name": "creator",
      "outputs": [
        {
          "name": "",
          "type": "address"
        }
      ],
      "payable": false,
      "stateMutability": "view",
      "type": "function"
    }
  ],
  "bytecode": "0x608060405234801561001057600080fd5b50613b34806100206000396000f3006080604052600436106101f9576000357c0100000000000000000000000000000000000000000000000000000000900463ffffffff168063029eabcb1461026757806302d05d3f1461029257806306fdde03146102e9578063095ea7b3146103795780631624f6c6146103de57806318160ddd1461049a5780631a1d0aca146104c55780631d3b34671461051c57806323b872dd146105475780632c135b93146105cc5780632ec02829146105f7578063304f90bb14610750578063313ce5671461077d57806332eb8f8b146107ae5780633781ca75146107d957806338af3eed14610804578063392f37e91461085b578063395093511461088e5780633ccfd60b146108f35780634f2d77781461092257806352f6ee581461095357806358ef56311461097e57806370a08231146109ae5780637db80dba14610a0557806389c24e0914610a7857806395d89b4114610bc35780639d1b464a14610c53578063a194c59c14610c7e578063a457c2d714610cbf578063a9059cbb14610d24578063a94c7e1c14610d89578063ba64506514610dca578063be6d055a14610df5578063c22c4f4314610e89578063cd3293de14610eca578063d6febde814610ef5578063d79875eb14610f37578063dd62ed3e14610f86578063e1fb21aa14610ffd578063eebbeef514611028578063f85cb5c814611069575b6040517f08c379a00000000000000000000000000000000000000000000000000000000081526004018080602001828103825260118152602001807f46616c6c6261636b2064697361626c656400000000000000000000000000000081525060200191505060405180910390fd5b34801561027357600080fd5b5061027c6110c0565b6040518082815260200191505060405180910390f35b34801561029e57600080fd5b506102a76110c6565b604051808273ffffffffffffffffffffffffffffffffffffffff1673ffffffffffffffffffffffffffffffffffffffff16815260200191505060405180910390f35b3480156102f557600080fd5b506102fe6110f0565b6040518080602001828103825283818151815260200191508051906020019080838360005b8381101561033e578082015181840152602081019050610323565b50505050905090810190601f16801561036b5780820380516001836020036101000a031916815260200191505b509250505060405180910390f35b34801561038557600080fd5b506103c4600480360381019080803573ffffffffffffffffffffffffffffffffffffffff16906020019092919080359060200190929190505050611192565b604051808215151515815260200191505060405180910390f35b3480156103ea57600080fd5b50610498600480360381019080803590602001908201803590602001908080601f0160208091040260200160405190810160405280939291908181526020018383808284378201915050505050509192919290803590602001908201803590602001908080601f0160208091040260200160405190810160405280939291908181526020018383808284378201915050505050509192919290803560ff1690602001909291905050506112bf565b005b3480156104a657600080fd5b506104af611440565b6040518082815260200191505060405180910390f35b3480156104d157600080fd5b506104da61144a565b604051808273ffffffffffffffffffffffffffffffffffffffff1673ffffffffffffffffffffffffffffffffffffffff16815260200191505060405180910390f35b34801561052857600080fd5b50610531611470565b6040518082815260200191505060405180910390f35b34801561055357600080fd5b506105b2600480360381019080803573ffffffffffffffffffffffffffffffffffffffff169060200190929190803573ffffffffffffffffffffffffffffffffffffffff16906020019092919080359060200190929190505050611476565b604051808215151515815260200191505060405180910390f35b3480156105d857600080fd5b506105e1611628565b6040518082815260200191505060405180910390f35b34801561060357600080fd5b5061074e600480360381019080803573ffffffffffffffffffffffffffffffffffffffff169060200190929190803573ffffffffffffffffffffffffffffffffffffffff1690602001909291908035906020019092919080359060200190929190803590602001909291908035906020019092919080359060200190929190803590602001909291908035600019169060200190929190803590602001908201803590602001908080601f0160208091040260200160405190810160405280939291908181526020018383808284378201915050505050509192919290803590602001908201803590602001908080601f0160208091040260200160405190810160405280939291908181526020018383808284378201915050505050509192919290803573ffffffffffffffffffffffffffffffffffffffff16906020019092919050505061166a565b005b34801561075c57600080fd5b5061077b60048036038101908080359060200190929190505050611808565b005b34801561078957600080fd5b50610792611879565b604051808260ff1660ff16815260200191505060405180910390f35b3480156107ba57600080fd5b506107c3611890565b6040518082815260200191505060405180910390f35b3480156107e557600080fd5b506107ee611896565b6040518082815260200191505060405180910390f35b34801561081057600080fd5b5061081961189c565b604051808273ffffffffffffffffffffffffffffffffffffffff1673ffffffffffffffffffffffffffffffffffffffff16815260200191505060405180910390f35b34801561086757600080fd5b506108706118c2565b60405180826000191660001916815260200191505060405180910390f35b34801561089a57600080fd5b506108d9600480360381019080803573ffffffffffffffffffffffffffffffffffffffff169060200190929190803590602001909291905050506118c8565b604051808215151515815260200191505060405180910390f35b3480156108ff57600080fd5b50610908611aff565b604051808215151515815260200191505060405180910390f35b34801561092e57600080fd5b506109516004803603810190808035600019169060200190929190505050611d74565b005b34801561095f57600080fd5b50610968611e02565b6040518082815260200191505060405180910390f35b34801561098a57600080fd5b506109ac600480360381019080803560ff169060200190929190505050611e08565b005b3480156109ba57600080fd5b506109ef600480360381019080803573ffffffffffffffffffffffffffffffffffffffff169060200190929190505050611f1d565b6040518082815260200191505060405180910390f35b348015610a1157600080fd5b50610a7660048036038101908080359060200190929190803590602001908201803590602001908080601f0160208091040260200160405190810160405280939291908181526020018383808284378201915050505050509192919290505050611f66565b005b348015610a8457600080fd5b50610bc1600480360381019080803573ffffffffffffffffffffffffffffffffffffffff169060200190929190803573ffffffffffffffffffffffffffffffffffffffff169060200190929190803590602001909291908035906020019092919080359060200190929190803590602001909291908035906020019092919080359060200190929190803590602001908201803590602001908080601f0160208091040260200160405190810160405280939291908181526020018383808284378201915050505050509192919290803590602001908201803590602001908080601f0160208091040260200160405190810160405280939291908181526020018383808284378201915050505050509192919290803573ffffffffffffffffffffffffffffffffffffffff1690602001909291905050506120f8565b005b348015610bcf57600080fd5b50610bd8612340565b6040518080602001828103825283818151815260200191508051906020019080838360005b83811015610c18578082015181840152602081019050610bfd565b50505050905090810190601f168015610c455780820380516001836020036101000a031916815260200191505b509250505060405180910390f35b348015610c5f57600080fd5b50610c686123e2565b6040518082815260200191505060405180910390f35b348015610c8a57600080fd5b50610ca9600480360381019080803590602001909291905050506123f9565b6040518082815260200191505060405180910390f35b348015610ccb57600080fd5b50610d0a600480360381019080803573ffffffffffffffffffffffffffffffffffffffff16906020019092919080359060200190929190505050612445565b604051808215151515815260200191505060405180910390f35b348015610d3057600080fd5b50610d6f600480360381019080803573ffffffffffffffffffffffffffffffffffffffff1690602001909291908035906020019092919050505061267c565b604051808215151515815260200191505060405180910390f35b348015610d9557600080fd5b50610db460048036038101908080359060200190929190505050612693565b6040518082815260200191505060405180910390f35b348015610dd657600080fd5b50610ddf6126fa565b6040518082815260200191505060405180910390f35b610e6f600480360381019080803573ffffffffffffffffffffffffffffffffffffffff169060200190929190803590602001908201803590602001908080601f0160208091040260200160405190810160405280939291908181526020018383808284378201915050505050509192919290505050612700565b604051808215151515815260200191505060405180910390f35b348015610e9557600080fd5b50610eb4600480360381019080803590602001909291905050506127d3565b6040518082815260200191505060405180910390f35b348015610ed657600080fd5b50610edf6127eb565b6040518082815260200191505060405180910390f35b610f1d60048036038101908080359060200190929190803590602001909291905050506127f1565b604051808215151515815260200191505060405180910390f35b348015610f4357600080fd5b50610f6c6004803603810190808035906020019092919080359060200190929190505050612ddb565b604051808215151515815260200191505060405180910390f35b348015610f9257600080fd5b50610fe7600480360381019080803573ffffffffffffffffffffffffffffffffffffffff169060200190929190803573ffffffffffffffffffffffffffffffffffffffff1690602001909291905050506132f2565b6040518082815260200191505060405180910390f35b34801561100957600080fd5b50611012613379565b6040518082815260200191505060405180910390f35b34801561103457600080fd5b506110536004803603810190808035906020019092919050505061337f565b6040518082815260200191505060405180910390f35b34801561107557600080fd5b5061107e6133e6565b604051808273ffffffffffffffffffffffffffffffffffffffff1673ffffffffffffffffffffffffffffffffffffffff16815260200191505060405180910390f35b60a05481565b6000609f60009054906101000a900473ffffffffffffffffffffffffffffffffffffffff16905090565b606060688054600181600116156101000203166002900480601f0160208091040260200160405190810160405280929190818152602001828054600181600116156101000203166002900480156111885780601f1061115d57610100808354040283529160200191611188565b820191906000526020600020905b81548152906001019060200180831161116b57829003601f168201915b5050505050905090565b60008073ffffffffffffffffffffffffffffffffffffffff168373ffffffffffffffffffffffffffffffffffffffff16141515156111cf57600080fd5b81603460003373ffffffffffffffffffffffffffffffffffffffff1673ffffffffffffffffffffffffffffffffffffffff16815260200190815260200160002060008573ffffffffffffffffffffffffffffffffffffffff1673ffffffffffffffffffffffffffffffffffffffff168152602001908152602001600020819055508273ffffffffffffffffffffffffffffffffffffffff163373ffffffffffffffffffffffffffffffffffffffff167f8c5be1e5ebec7d5bd14f71427d1e84f3dd0314c0f7b2291e5b200ac8c7c3b925846040518082815260200191505060405180910390a36001905092915050565b60008060019054906101000a900460ff16806112df57506112de61340c565b5b806112f657506000809054906101000a900460ff16155b1515611390576040517f08c379a000000000000000000000000000000000000000000000000000000000815260040180806020018281038252602e8152602001807f436f6e747261637420696e7374616e63652068617320616c726561647920626581526020017f656e20696e697469616c697a656400000000000000000000000000000000000081525060400191505060405180910390fd5b600060019054906101000a900460ff1690506001600060016101000a81548160ff02191690831515021790555060016000806101000a81548160ff02191690831515021790555083606890805190602001906113ed929190613a63565b508260699080519060200190611404929190613a63565b5081606a60006101000a81548160ff021916908360ff16021790555080600060016101000a81548160ff02191690831515021790555050505050565b6000603554905090565b60a660009054906101000a900473ffffffffffffffffffffffffffffffffffffffff1681565b60a25481565b6000603460008573ffffffffffffffffffffffffffffffffffffffff1673ffffffffffffffffffffffffffffffffffffffff16815260200190815260200160002060003373ffffffffffffffffffffffffffffffffffffffff1673ffffffffffffffffffffffffffffffffffffffff16815260200190815260200160002054821115151561150357600080fd5b61159282603460008773ffffffffffffffffffffffffffffffffffffffff1673ffffffffffffffffffffffffffffffffffffffff16815260200190815260200160002060003373ffffffffffffffffffffffffffffffffffffffff1673ffffffffffffffffffffffffffffffffffffffff1681526020019081526020016000205461341d90919063ffffffff16565b603460008673ffffffffffffffffffffffffffffffffffffffff1673ffffffffffffffffffffffffffffffffffffffff16815260200190815260200160002060003373ffffffffffffffffffffffffffffffffffffffff1673ffffffffffffffffffffffffffffffffffffffff1681526020019081526020016000208190555061161d84848461343e565b600190509392505050565b6000611665670de0b6b3a7640000611657611641611440565b6116496123e2565b61365c90919063ffffffff16565b61369a90919063ffffffff16565b905090565b60008060019054906101000a900460ff168061168a575061168961340c565b5b806116a157506000809054906101000a900460ff16155b151561173b576040517f08c379a000000000000000000000000000000000000000000000000000000000815260040180806020018281038252602e8152602001807f436f6e747261637420696e7374616e63652068617320616c726561647920626581526020017f656e20696e697469616c697a656400000000000000000000000000000000000081525060400191505060405180910390fd5b600060019054906101000a900460ff1690506001600060016101000a81548160ff02191690831515021790555060016000806101000a81548160ff0219169083151502179055506117958d8d8d8d8d8d8d8d8c8c8c6120f8565b8460a781600019169055507f6e27af24ead46b4b469e383b46b4b75487fcf1ffce54d216add332f9de2120c58560405180826000191660001916815260200191505060405180910390a180600060016101000a81548160ff02191690831515021790555050505050505050505050505050565b6118106110c6565b73ffffffffffffffffffffffffffffffffffffffff163373ffffffffffffffffffffffffffffffffffffffff1614151561184957600080fd5b8060a9600060a854815260200190815260200160002081905550611870600160a8546136c4565b60a88190555050565b6000606a60009054906101000a900460ff16905090565b60a15481565b60a55481565b609f60009054906101000a900473ffffffffffffffffffffffffffffffffffffffff1681565b60a75481565b60008073ffffffffffffffffffffffffffffffffffffffff168373ffffffffffffffffffffffffffffffffffffffff161415151561190557600080fd5b61199482603460003373ffffffffffffffffffffffffffffffffffffffff1673ffffffffffffffffffffffffffffffffffffffff16815260200190815260200160002060008673ffffffffffffffffffffffffffffffffffffffff1673ffffffffffffffffffffffffffffffffffffffff168152602001908152602001600020546136c490919063ffffffff16565b603460003373ffffffffffffffffffffffffffffffffffffffff1673ffffffffffffffffffffffffffffffffffffffff16815260200190815260200160002060008573ffffffffffffffffffffffffffffffffffffffff1673ffffffffffffffffffffffffffffffffffffffff168152602001908152602001600020819055508273ffffffffffffffffffffffffffffffffffffffff163373ffffffffffffffffffffffffffffffffffffffff167f8c5be1e5ebec7d5bd14f71427d1e84f3dd0314c0f7b2291e5b200ac8c7c3b925603460003373ffffffffffffffffffffffffffffffffffffffff1673ffffffffffffffffffffffffffffffffffffffff16815260200190815260200160002060008773ffffffffffffffffffffffffffffffffffffffff1673ffffffffffffffffffffffffffffffffffffffff168152602001908152602001600020546040518082815260200191505060405180910390a36001905092915050565b60008060a054111515611b7a576040517f08c379a00000000000000000000000000000000000000000000000000000000081526004018080602001828103825260188152602001807f43616e6e6f74207769746864726177203020616d6f756e74000000000000000081525060200191505060405180910390fd5b600073ffffffffffffffffffffffffffffffffffffffff16609d60009054906101000a900473ffffffffffffffffffffffffffffffffffffffff1673ffffffffffffffffffffffffffffffffffffffff161415611c4157609f60009054906101000a900473ffffffffffffffffffffffffffffffffffffffff1673ffffffffffffffffffffffffffffffffffffffff166108fc60a0549081150290604051600060405180830381858888f19350505050158015611c3b573d6000803e3d6000fd5b50611d67565b609d60009054906101000a900473ffffffffffffffffffffffffffffffffffffffff1673ffffffffffffffffffffffffffffffffffffffff1663a9059cbb609f60009054906101000a900473ffffffffffffffffffffffffffffffffffffffff1660a0546040518363ffffffff167c0100000000000000000000000000000000000000000000000000000000028152600401808373ffffffffffffffffffffffffffffffffffffffff1673ffffffffffffffffffffffffffffffffffffffff16815260200182815260200192505050602060405180830381600087803b158015611d2a57600080fd5b505af1158015611d3e573d6000803e3d6000fd5b505050506040513d6020811015611d5457600080fd5b8101908080519060200190929190505050505b60a0600090556001905090565b611d7c6110c6565b73ffffffffffffffffffffffffffffffffffffffff163373ffffffffffffffffffffffffffffffffffffffff16141515611db557600080fd5b8060a781600019169055507f6e27af24ead46b4b469e383b46b4b75487fcf1ffce54d216add332f9de2120c58160405180826000191660001916815260200191505060405180910390a150565b60a35481565b611e106110c6565b73ffffffffffffffffffffffffffffffffffffffff163373ffffffffffffffffffffffffffffffffffffffff16141515611e4957600080fd5b600060a960008360ff1681526020019081526020016000205414151515611efe576040517f08c379a000000000000000000000000000000000000000000000000000000000815260040180806020018281038252602a8152602001807f53657276696365206e6f7420696e697469616c697a6564206f7220616c72656181526020017f64792072656d6f7665640000000000000000000000000000000000000000000081525060400191505060405180910390fd5b600060a960008360ff1681526020019081526020016000208190555050565b6000603360008373ffffffffffffffffffffffffffffffffffffffff1673ffffffffffffffffffffffffffffffffffffffff168152602001908152602001600020549050919050565b600060a9600084815260200190815260200160002054905080611f8833611f1d565b10151515612024576040517f08c379a000000000000000000000000000000000000000000000000000000000815260040180806020018281038252602f8152602001807f4d757374206861766520656e6f75676820746f6b656e7320746f20726571756581526020017f737420746869732073657276696365000000000000000000000000000000000081525060400191505060405180910390fd5b61202e33826136e5565b61203f6120396110c6565b82613873565b823373ffffffffffffffffffffffffffffffffffffffff167f6dd5c7764b5a8e5e8a6ef2853bb5a39c41b35f252c2adfc5f9d8b4f089544347846040518080602001828103825283818151815260200191508051906020019080838360005b838110156120b957808201518184015260208101905061209e565b50505050905090810190601f1680156120e65780820380516001836020036101000a031916815260200191505b509250505060405180910390a3505050565b60008060019054906101000a900460ff1680612118575061211761340c565b5b8061212f57506000809054906101000a900460ff16155b15156121c9576040517f08c379a000000000000000000000000000000000000000000000000000000000815260040180806020018281038252602e8152602001807f436f6e747261637420696e7374616e63652068617320616c726561647920626581526020017f656e20696e697469616c697a656400000000000000000000000000000000000081525060400191505060405180910390fd5b600060019054906101000a900460ff1690506001600060016101000a81548160ff02191690831515021790555060016000806101000a81548160ff02191690831515021790555061221c848460126112bf565b60008511156122325761223161133786613873565b5b8b609d60006101000a81548173ffffffffffffffffffffffffffffffffffffffff021916908373ffffffffffffffffffffffffffffffffffffffff1602179055508a609f60006101000a81548173ffffffffffffffffffffffffffffffffffffffff021916908373ffffffffffffffffffffffffffffffffffffffff1602179055508960a1819055508860a2819055508760a3819055508660a4819055508560a5819055508160a660006101000a81548173ffffffffffffffffffffffffffffffffffffffff021916908373ffffffffffffffffffffffffffffffffffffffff16021790555080600060016101000a81548160ff021916908315150217905550505050505050505050505050565b606060698054600181600116156101000203166002900480601f0160208091040260200160405190810160405280929190818152602001828054600181600116156101000203166002900480156123d85780601f106123ad576101008083540402835291602001916123d8565b820191906000526020600020905b8154815290600101906020018083116123bb57829003601f168201915b5050505050905090565b60006123f46123ef611440565b6139b3565b905090565b600061243e61240e612409611440565b6139e9565b61243061242b8561241d611440565b6136c490919063ffffffff16565b6139e9565b61341d90919063ffffffff16565b9050919050565b60008073ffffffffffffffffffffffffffffffffffffffff168373ffffffffffffffffffffffffffffffffffffffff161415151561248257600080fd5b61251182603460003373ffffffffffffffffffffffffffffffffffffffff1673ffffffffffffffffffffffffffffffffffffffff16815260200190815260200160002060008673ffffffffffffffffffffffffffffffffffffffff1673ffffffffffffffffffffffffffffffffffffffff1681526020019081526020016000205461341d90919063ffffffff16565b603460003373ffffffffffffffffffffffffffffffffffffffff1673ffffffffffffffffffffffffffffffffffffffff16815260200190815260200160002060008573ffffffffffffffffffffffffffffffffffffffff1673ffffffffffffffffffffffffffffffffffffffff168152602001908152602001600020819055508273ffffffffffffffffffffffffffffffffffffffff163373ffffffffffffffffffffffffffffffffffffffff167f8c5be1e5ebec7d5bd14f71427d1e84f3dd0314c0f7b2291e5b200ac8c7c3b925603460003373ffffffffffffffffffffffffffffffffffffffff1673ffffffffffffffffffffffffffffffffffffffff16815260200190815260200160002060008773ffffffffffffffffffffffffffffffffffffffff1673ffffffffffffffffffffffffffffffffffffffff168152602001908152602001600020546040518082815260200191505060405180910390a36001905092915050565b600061268933848461343e565b6001905092915050565b60006126f36126e260a5546126d46126c36126be876126b0611440565b61341d90919063ffffffff16565b6139e9565b60a45461365c90919063ffffffff16565b61369a90919063ffffffff16565b609e5461341d90919063ffffffff16565b9050919050565b60a45481565b600061270a6110c6565b73ffffffffffffffffffffffffffffffffffffffff163373ffffffffffffffffffffffffffffffffffffffff1614151561274357600080fd5b8273ffffffffffffffffffffffffffffffffffffffff16348360405180828051906020019080838360005b8381101561278957808201518184015260208101905061276e565b50505050905090810190601f1680156127b65780820380516001836020036101000a031916815260200191505b5091505060006040518083038185875af192505050905092915050565b60a96020528060005260406000206000915090505481565b609e5481565b600080600060a660009054906101000a900473ffffffffffffffffffffffffffffffffffffffff1673ffffffffffffffffffffffffffffffffffffffff1663501d815c6040518163ffffffff167c0100000000000000000000000000000000000000000000000000000000028152600401602060405180830381600087803b15801561287c57600080fd5b505af1158015612890573d6000803e3d6000fd5b505050506040513d60208110156128a657600080fd5b81019080805190602001909291905050503a11151515612954576040517f08c379a00000000000000000000000000000000000000000000000000000000081526004018080602001828103825260318152602001807f5472616e73616374696f6e20676173207072696365206578636565647320746881526020017f65206f7261636c65206d6178206761732e00000000000000000000000000000081525060400191505060405180910390fd5b600060a660009054906101000a900473ffffffffffffffffffffffffffffffffffffffff1673ffffffffffffffffffffffffffffffffffffffff1663501d815c6040518163ffffffff167c0100000000000000000000000000000000000000000000000000000000028152600401602060405180830381600087803b1580156129dc57600080fd5b505af11580156129f0573d6000803e3d6000fd5b505050506040513d6020811015612a0657600080fd5b8101908080519060200190929190505050111515612ab2576040517f08c379a00000000000000000000000000000000000000000000000000000000081526004018080602001828103825260288152602001807f53797374656d20686173206265656e207368757420646f776e2061742074686581526020017f206f7261636c652e00000000000000000000000000000000000000000000000081525060400191505060405180910390fd5b612abb856123f9565b9150838211151515612acc57600080fd5b612ad58561337f565b9050612afe612aed828461341d90919063ffffffff16565b60a0546136c490919063ffffffff16565b60a081905550612b1981609e546136c490919063ffffffff16565b609e81905550600073ffffffffffffffffffffffffffffffffffffffff16609d60009054906101000a900473ffffffffffffffffffffffffffffffffffffffff1673ffffffffffffffffffffffffffffffffffffffff161415612bdd5781341115612bd8573373ffffffffffffffffffffffffffffffffffffffff166108fc612bab843461341d90919063ffffffff16565b9081150290604051600060405180830381858888f19350505050158015612bd6573d6000803e3d6000fd5b505b612d13565b609d60009054906101000a900473ffffffffffffffffffffffffffffffffffffffff1673ffffffffffffffffffffffffffffffffffffffff166323b872dd3330856040518463ffffffff167c0100000000000000000000000000000000000000000000000000000000028152600401808473ffffffffffffffffffffffffffffffffffffffff1673ffffffffffffffffffffffffffffffffffffffff1681526020018373ffffffffffffffffffffffffffffffffffffffff1673ffffffffffffffffffffffffffffffffffffffff1681526020018281526020019350505050602060405180830381600087803b158015612cd657600080fd5b505af1158015612cea573d6000803e3d6000fd5b505050506040513d6020811015612d0057600080fd5b8101908080519060200190929190505050505b612d1d3386613873565b3373ffffffffffffffffffffffffffffffffffffffff167f62722348256371b5147820d6cad90c40fd2da1ccee18c3ed52c0bca5a61dbbab612d68838561341d90919063ffffffff16565b6040518082815260200191505060405180910390a23373ffffffffffffffffffffffffffffffffffffffff167fa9a40dec7a304e5915d11358b968c1e8d365992abf20f82285d1df1b30c8e24c8684604051808381526020018281526020019250505060405180910390a2505092915050565b60008060a660009054906101000a900473ffffffffffffffffffffffffffffffffffffffff1673ffffffffffffffffffffffffffffffffffffffff1663501d815c6040518163ffffffff167c0100000000000000000000000000000000000000000000000000000000028152600401602060405180830381600087803b158015612e6457600080fd5b505af1158015612e78573d6000803e3d6000fd5b505050506040513d6020811015612e8e57600080fd5b81019080805190602001909291905050503a11151515612f3c576040517f08c379a00000000000000000000000000000000000000000000000000000000081526004018080602001828103825260318152602001807f5472616e73616374696f6e20676173207072696365206578636565647320746881526020017f65206f7261636c65206d6178206761732e00000000000000000000000000000081525060400191505060405180910390fd5b600060a660009054906101000a900473ffffffffffffffffffffffffffffffffffffffff1673ffffffffffffffffffffffffffffffffffffffff1663501d815c6040518163ffffffff167c0100000000000000000000000000000000000000000000000000000000028152600401602060405180830381600087803b158015612fc457600080fd5b505af1158015612fd8573d6000803e3d6000fd5b505050506040513d6020811015612fee57600080fd5b810190808051906020019092919050505011151561309a576040517f08c379a00000000000000000000000000000000000000000000000000000000081526004018080602001828103825260288152602001807f53797374656d20686173206265656e207368757420646f776e2061742074686581526020017f206f7261636c652e00000000000000000000000000000000000000000000000081525060400191505060405180910390fd5b836130a433611f1d565b101515156130b157600080fd5b6130ba84612693565b90508281101515156130cb57600080fd5b6130e081609e5461341d90919063ffffffff16565b609e81905550600073ffffffffffffffffffffffffffffffffffffffff16609d60009054906101000a900473ffffffffffffffffffffffffffffffffffffffff1673ffffffffffffffffffffffffffffffffffffffff161415613189573373ffffffffffffffffffffffffffffffffffffffff166108fc829081150290604051600060405180830381858888f19350505050158015613183573d6000803e3d6000fd5b5061328b565b609d60009054906101000a900473ffffffffffffffffffffffffffffffffffffffff1673ffffffffffffffffffffffffffffffffffffffff1663a9059cbb33836040518363ffffffff167c0100000000000000000000000000000000000000000000000000000000028152600401808373ffffffffffffffffffffffffffffffffffffffff1673ffffffffffffffffffffffffffffffffffffffff16815260200182815260200192505050602060405180830381600087803b15801561324e57600080fd5b505af1158015613262573d6000803e3d6000fd5b505050506040513d602081101561327857600080fd5b8101908080519060200190929190505050505b61329533856136e5565b3373ffffffffffffffffffffffffffffffffffffffff167fbac9694ac0daa55169abd117086fe32c89401d9a3b15dd1d34e55e0aa4e47a9d8583604051808381526020018281526020019250505060405180910390a25092915050565b6000603460008473ffffffffffffffffffffffffffffffffffffffff1673ffffffffffffffffffffffffffffffffffffffff16815260200190815260200160002060008373ffffffffffffffffffffffffffffffffffffffff1673ffffffffffffffffffffffffffffffffffffffff16815260200190815260200160002054905092915050565b60a85481565b60006133df609e546133d160a5546133c36133b26133ad8861339f611440565b6136c490919063ffffffff16565b6139e9565b60a45461365c90919063ffffffff16565b61369a90919063ffffffff16565b61341d90919063ffffffff16565b9050919050565b609d60009054906101000a900473ffffffffffffffffffffffffffffffffffffffff1681565b600080303b90506000811491505090565b60008083831115151561342f57600080fd5b82840390508091505092915050565b603360008473ffffffffffffffffffffffffffffffffffffffff1673ffffffffffffffffffffffffffffffffffffffff16815260200190815260200160002054811115151561348c57600080fd5b600073ffffffffffffffffffffffffffffffffffffffff168273ffffffffffffffffffffffffffffffffffffffff16141515156134c857600080fd5b61351a81603360008673ffffffffffffffffffffffffffffffffffffffff1673ffffffffffffffffffffffffffffffffffffffff1681526020019081526020016000205461341d90919063ffffffff16565b603360008573ffffffffffffffffffffffffffffffffffffffff1673ffffffffffffffffffffffffffffffffffffffff168152602001908152602001600020819055506135af81603360008573ffffffffffffffffffffffffffffffffffffffff1673ffffffffffffffffffffffffffffffffffffffff168152602001908152602001600020546136c490919063ffffffff16565b603360008473ffffffffffffffffffffffffffffffffffffffff1673ffffffffffffffffffffffffffffffffffffffff168152602001908152602001600020819055508173ffffffffffffffffffffffffffffffffffffffff168373ffffffffffffffffffffffffffffffffffffffff167fddf252ad1be2c89b69c2b068fc378daa952ba7f163c4a11628f55a4df523b3ef836040518082815260200191505060405180910390a3505050565b60008060008414156136715760009150613693565b828402905082848281151561368257fe5b0414151561368f57600080fd5b8091505b5092915050565b6000806000831115156136ac57600080fd5b82848115156136b757fe5b0490508091505092915050565b60008082840190508381101515156136db57600080fd5b8091505092915050565b60008273ffffffffffffffffffffffffffffffffffffffff161415151561370b57600080fd5b603360008373ffffffffffffffffffffffffffffffffffffffff1673ffffffffffffffffffffffffffffffffffffffff16815260200190815260200160002054811115151561375957600080fd5b61376e8160355461341d90919063ffffffff16565b6035819055506137c681603360008573ffffffffffffffffffffffffffffffffffffffff1673ffffffffffffffffffffffffffffffffffffffff1681526020019081526020016000205461341d90919063ffffffff16565b603360008473ffffffffffffffffffffffffffffffffffffffff1673ffffffffffffffffffffffffffffffffffffffff16815260200190815260200160002081905550600073ffffffffffffffffffffffffffffffffffffffff168273ffffffffffffffffffffffffffffffffffffffff167fddf252ad1be2c89b69c2b068fc378daa952ba7f163c4a11628f55a4df523b3ef836040518082815260200191505060405180910390a35050565b60008273ffffffffffffffffffffffffffffffffffffffff161415151561389957600080fd5b6138ae816035546136c490919063ffffffff16565b60358190555061390681603360008573ffffffffffffffffffffffffffffffffffffffff1673ffffffffffffffffffffffffffffffffffffffff168152602001908152602001600020546136c490919063ffffffff16565b603360008473ffffffffffffffffffffffffffffffffffffffff1673ffffffffffffffffffffffffffffffffffffffff168152602001908152602001600020819055508173ffffffffffffffffffffffffffffffffffffffff16600073ffffffffffffffffffffffffffffffffffffffff167fddf252ad1be2c89b69c2b068fc378daa952ba7f163c4a11628f55a4df523b3ef836040518082815260200191505060405180910390a35050565b60006139e260a2546139d460a354850a60a15461365c90919063ffffffff16565b61369a90919063ffffffff16565b9050919050565b600080613a02600160a3546136c490919063ffffffff16565b9050613a5b670de0b6b3a7640000613a4d60a254613a3f85613a31878a0a60a15461365c90919063ffffffff16565b61369a90919063ffffffff16565b61369a90919063ffffffff16565b61369a90919063ffffffff16565b915050919050565b828054600181600116156101000203166002900490600052602060002090601f016020900481019282601f10613aa457805160ff1916838001178555613ad2565b82800160010185558215613ad2579182015b82811115613ad1578251825591602001919060010190613ab6565b5b509050613adf9190613ae3565b5090565b613b0591905b80821115613b01576000816000905550600101613ae9565b5090565b905600a165627a7a72305820c26b3e6d474da45f7fef2e291741f5efe5b89fcd546cc9c1f6432a9f535f91ea0029",
  "source": "pragma solidity ^0.4.24;\n\nimport \"zos-lib/contracts/Initializable.sol\";\nimport \"zos-lib/contracts/upgradeability/AdminUpgradeabilityProxy.sol\";\n\nimport \"./DoubleCurveToken.sol\";\n\n/**\n * @title Account\n * @dev   Manages the logic for user accounts on Convergent.\n */\ncontract Account is Initializable, DoubleCurveToken {\n    event MetadataUpdated(bytes32 newMetadata);\n    event ServiceRequested(address indexed requestor, uint256 indexed serviceIndex, string message);\n\n    bytes32 public metadata;\n\n    uint256 public curServiceIndex;\n    // serviceIndex => servicePrice\n    mapping (uint256 => uint256) public services;\n\n    function initialize(\n        address _reserveAsset,\n        address _beneficiary,\n        uint256 _slopeN,\n        uint256 _slopeD,\n        uint256 _exponent,\n        uint256 _spreadN,\n        uint256 _spreadD,\n        uint256 _preMint,\n        bytes32 _metadata,\n        string _name,\n        string _symbol,\n        address _gasPriceOracle\n    )   initializer\n        public\n    {    \n        DoubleCurveToken.initialize(\n            _reserveAsset,\n            _beneficiary,\n            _slopeN,\n            _slopeD,\n            _exponent,\n            _spreadN,\n            _spreadD,\n            _preMint,\n            _name,\n            _symbol,\n            _gasPriceOracle\n        );\n\n        metadata = _metadata;\n        emit MetadataUpdated(_metadata);\n    }\n\n    function addService(\n        uint256 _price\n    )   onlyCreator\n        public\n    {\n        services[curServiceIndex] = _price;\n        curServiceIndex = SafeMath.add(1, curServiceIndex);\n    }\n\n    function removeService(\n        uint8 _serviceIndex\n    )   public\n        onlyCreator\n    {\n        require(\n            services[_serviceIndex] != 0,\n            \"Service not initialized or already removed\"\n        );\n        services[_serviceIndex] = 0;\n    }\n\n    function updateMetadata(\n        bytes32 _metadata\n    )   onlyCreator\n        public\n    {\n        metadata = _metadata;\n\n        emit MetadataUpdated(_metadata);\n    }\n\n    function requestService(\n        uint256 _serviceIndex,\n        string _message\n    )   public\n    {\n        uint256 price = services[_serviceIndex];\n        \n        require(\n            balanceOf(msg.sender) >= price,\n            \"Must have enough tokens to request this service\"\n        );\n\n        // require(\n            // allowance(msg.sender, address(this)) >= price,\n            // \"Must give this contract allowance first\"\n        // );\n\n        // transferFrom(msg.sender, creator(), price);\n\n        // The evil way to do this:\n        _burn(msg.sender, price);\n        _mint(creator(), price);\n\n        emit ServiceRequested(msg.sender, _serviceIndex, _message);\n    }\n\n    function proxy(address _target, bytes _data)\n        public payable onlyCreator returns (bool)\n    {\n        return _target.call.value(msg.value)(_data);\n    }\n\n    function creator() public view returns (address) {\n        return beneficiary;\n    }\n\n    modifier onlyCreator() {\n        require(msg.sender == creator());\n        _;\n    }\n}\n",
  "sourcePath": "/home/volt/workspaces/convergentcx/liquid/contracts/Account.sol",
  "compiler": {
    "name": "solc",
    "version": "0.4.25+commit.59dbf8f1.Emscripten.clang"
  },
  "schemaVersion": "3.0.1",
  "updatedAt": "2019-02-09T12:35:05.493Z",
  "devdoc": {
    "methods": {
      "allowance(address,address)": {
        "details": "Function to check the amount of tokens that an owner allowed to a spender.",
        "params": {
          "owner": "address The address which owns the funds.",
          "spender": "address The address which will spend the funds."
        },
        "return": "A uint256 specifying the amount of tokens still available for the spender."
      },
      "approve(address,uint256)": {
        "details": "Approve the passed address to spend the specified amount of tokens on behalf of msg.sender. Beware that changing an allowance with this method brings the risk that someone may use both the old and the new allowance by unfortunate transaction ordering. One possible solution to mitigate this race condition is to first reduce the spender's allowance to 0 and set the desired value afterwards: https://github.com/ethereum/EIPs/issues/20#issuecomment-263524729",
        "params": {
          "spender": "The address which will spend the funds.",
          "value": "The amount of tokens to be spent."
        }
      },
      "balanceOf(address)": {
        "details": "Gets the balance of the specified address.",
        "params": {
          "owner": "The address to query the the balance of."
        },
        "return": "An uint256 representing the amount owned by the passed address."
      },
      "decimals()": {
        "return": "the number of decimals of the token."
      },
      "decreaseAllowance(address,uint256)": {
        "details": "Decrease the amount of tokens that an owner allowed to a spender. approve should be called when allowed_[_spender] == 0. To decrement allowed value is better to use this function to avoid 2 calls (and wait until the first transaction is mined) From MonolithDAO Token.sol",
        "params": {
          "spender": "The address which will spend the funds.",
          "subtractedValue": "The amount of tokens to decrease the allowance by."
        }
      },
      "increaseAllowance(address,uint256)": {
        "details": "Increase the amount of tokens that an owner allowed to a spender. approve should be called when allowed_[_spender] == 0. To increment allowed value is better to use this function to avoid 2 calls (and wait until the first transaction is mined) From MonolithDAO Token.sol",
        "params": {
          "addedValue": "The amount of tokens to increase the allowance by.",
          "spender": "The address which will spend the funds."
        }
      },
      "name()": {
        "return": "the name of the token."
      },
      "symbol()": {
        "return": "the symbol of the token."
      },
      "totalSupply()": {
        "details": "Total number of tokens in existence"
      },
      "transfer(address,uint256)": {
        "details": "Transfer token for a specified address",
        "params": {
          "to": "The address to transfer to.",
          "value": "The amount to be transferred."
        }
      },
      "transferFrom(address,address,uint256)": {
        "details": "Transfer tokens from one address to another",
        "params": {
          "from": "address The address which you want to send tokens from",
          "to": "address The address which you want to transfer to",
          "value": "uint256 the amount of tokens to be transferred"
        }
      }
    },
    "title": "Account"
  },
  "userdoc": {
    "methods": {}
  }
}