{
  "contractName": "Account",
  "abi": [
    {
      "constant": true,
      "inputs": [],
      "name": "contributions",
      "outputs": [
        {
          "name": "",
          "type": "uint256"
        }
      ],
      "payable": false,
      "stateMutability": "view",
      "type": "function"
    },
    {
      "constant": true,
      "inputs": [],
      "name": "name",
      "outputs": [
        {
          "name": "",
          "type": "string"
        }
      ],
      "payable": false,
      "stateMutability": "view",
      "type": "function"
    },
    {
      "constant": false,
      "inputs": [
        {
          "name": "spender",
          "type": "address"
        },
        {
          "name": "value",
          "type": "uint256"
        }
      ],
      "name": "approve",
      "outputs": [
        {
          "name": "",
          "type": "bool"
        }
      ],
      "payable": false,
      "stateMutability": "nonpayable",
      "type": "function"
    },
    {
      "constant": true,
      "inputs": [],
      "name": "totalSupply",
      "outputs": [
        {
          "name": "",
          "type": "uint256"
        }
      ],
      "payable": false,
      "stateMutability": "view",
      "type": "function"
    },
    {
      "constant": true,
      "inputs": [],
      "name": "gpo",
      "outputs": [
        {
          "name": "",
          "type": "address"
        }
      ],
      "payable": false,
      "stateMutability": "view",
      "type": "function"
    },
    {
      "constant": true,
      "inputs": [],
      "name": "slopeD",
      "outputs": [
        {
          "name": "",
          "type": "uint256"
        }
      ],
      "payable": false,
      "stateMutability": "view",
      "type": "function"
    },
    {
      "constant": false,
      "inputs": [
        {
          "name": "from",
          "type": "address"
        },
        {
          "name": "to",
          "type": "address"
        },
        {
          "name": "value",
          "type": "uint256"
        }
      ],
      "name": "transferFrom",
      "outputs": [
        {
          "name": "",
          "type": "bool"
        }
      ],
      "payable": false,
      "stateMutability": "nonpayable",
      "type": "function"
    },
    {
      "constant": true,
      "inputs": [],
      "name": "marketCap",
      "outputs": [
        {
          "name": "",
          "type": "uint256"
        }
      ],
      "payable": false,
      "stateMutability": "view",
      "type": "function"
    },
    {
      "constant": true,
      "inputs": [],
      "name": "decimals",
      "outputs": [
        {
          "name": "",
          "type": "uint8"
        }
      ],
      "payable": false,
      "stateMutability": "view",
      "type": "function"
    },
    {
      "constant": true,
      "inputs": [],
      "name": "slopeN",
      "outputs": [
        {
          "name": "",
          "type": "uint256"
        }
      ],
      "payable": false,
      "stateMutability": "view",
      "type": "function"
    },
    {
      "constant": true,
      "inputs": [],
      "name": "spreadD",
      "outputs": [
        {
          "name": "",
          "type": "uint256"
        }
      ],
      "payable": false,
      "stateMutability": "view",
      "type": "function"
    },
    {
      "constant": true,
      "inputs": [],
      "name": "beneficiary",
      "outputs": [
        {
          "name": "",
          "type": "address"
        }
      ],
      "payable": false,
      "stateMutability": "view",
      "type": "function"
    },
    {
      "constant": true,
      "inputs": [],
      "name": "metadata",
      "outputs": [
        {
          "name": "",
          "type": "bytes32"
        }
      ],
      "payable": false,
      "stateMutability": "view",
      "type": "function"
    },
    {
      "constant": false,
      "inputs": [
        {
          "name": "spender",
          "type": "address"
        },
        {
          "name": "addedValue",
          "type": "uint256"
        }
      ],
      "name": "increaseAllowance",
      "outputs": [
        {
          "name": "",
          "type": "bool"
        }
      ],
      "payable": false,
      "stateMutability": "nonpayable",
      "type": "function"
    },
    {
      "constant": false,
      "inputs": [],
      "name": "withdraw",
      "outputs": [
        {
          "name": "",
          "type": "bool"
        }
      ],
      "payable": false,
      "stateMutability": "nonpayable",
      "type": "function"
    },
    {
      "constant": true,
      "inputs": [],
      "name": "exponent",
      "outputs": [
        {
          "name": "",
          "type": "uint256"
        }
      ],
      "payable": false,
      "stateMutability": "view",
      "type": "function"
    },
    {
      "constant": true,
      "inputs": [
        {
          "name": "owner",
          "type": "address"
        }
      ],
      "name": "balanceOf",
      "outputs": [
        {
          "name": "",
          "type": "uint256"
        }
      ],
      "payable": false,
      "stateMutability": "view",
      "type": "function"
    },
    {
      "constant": true,
      "inputs": [],
      "name": "symbol",
      "outputs": [
        {
          "name": "",
          "type": "string"
        }
      ],
      "payable": false,
      "stateMutability": "view",
      "type": "function"
    },
    {
      "constant": true,
      "inputs": [],
      "name": "currentPrice",
      "outputs": [
        {
          "name": "",
          "type": "uint256"
        }
      ],
      "payable": false,
      "stateMutability": "view",
      "type": "function"
    },
    {
      "constant": true,
      "inputs": [
        {
          "name": "_tokens",
          "type": "uint256"
        }
      ],
      "name": "priceToBuy",
      "outputs": [
        {
          "name": "",
          "type": "uint256"
        }
      ],
      "payable": false,
      "stateMutability": "view",
      "type": "function"
    },
    {
      "constant": false,
      "inputs": [
        {
          "name": "spender",
          "type": "address"
        },
        {
          "name": "subtractedValue",
          "type": "uint256"
        }
      ],
      "name": "decreaseAllowance",
      "outputs": [
        {
          "name": "",
          "type": "bool"
        }
      ],
      "payable": false,
      "stateMutability": "nonpayable",
      "type": "function"
    },
    {
      "constant": false,
      "inputs": [
        {
          "name": "to",
          "type": "address"
        },
        {
          "name": "value",
          "type": "uint256"
        }
      ],
      "name": "transfer",
      "outputs": [
        {
          "name": "",
          "type": "bool"
        }
      ],
      "payable": false,
      "stateMutability": "nonpayable",
      "type": "function"
    },
    {
      "constant": true,
      "inputs": [
        {
          "name": "_tokens",
          "type": "uint256"
        }
      ],
      "name": "returnForSell",
      "outputs": [
        {
          "name": "",
          "type": "uint256"
        }
      ],
      "payable": false,
      "stateMutability": "view",
      "type": "function"
    },
    {
      "constant": true,
      "inputs": [],
      "name": "spreadN",
      "outputs": [
        {
          "name": "",
          "type": "uint256"
        }
      ],
      "payable": false,
      "stateMutability": "view",
      "type": "function"
    },
    {
      "constant": true,
      "inputs": [
        {
          "name": "",
          "type": "uint256"
        }
      ],
      "name": "services",
      "outputs": [
        {
          "name": "",
          "type": "uint256"
        }
      ],
      "payable": false,
      "stateMutability": "view",
      "type": "function"
    },
    {
      "constant": true,
      "inputs": [],
      "name": "reserve",
      "outputs": [
        {
          "name": "",
          "type": "uint256"
        }
      ],
      "payable": false,
      "stateMutability": "view",
      "type": "function"
    },
    {
      "constant": false,
      "inputs": [
        {
          "name": "_tokens",
          "type": "uint256"
        },
        {
          "name": "_maxSpend",
          "type": "uint256"
        }
      ],
      "name": "buy",
      "outputs": [
        {
          "name": "",
          "type": "bool"
        }
      ],
      "payable": true,
      "stateMutability": "payable",
      "type": "function"
    },
    {
      "constant": false,
      "inputs": [
        {
          "name": "_tokens",
          "type": "uint256"
        },
        {
          "name": "_minReturn",
          "type": "uint256"
        }
      ],
      "name": "sell",
      "outputs": [
        {
          "name": "",
          "type": "bool"
        }
      ],
      "payable": false,
      "stateMutability": "nonpayable",
      "type": "function"
    },
    {
      "constant": true,
      "inputs": [
        {
          "name": "owner",
          "type": "address"
        },
        {
          "name": "spender",
          "type": "address"
        }
      ],
      "name": "allowance",
      "outputs": [
        {
          "name": "",
          "type": "uint256"
        }
      ],
      "payable": false,
      "stateMutability": "view",
      "type": "function"
    },
    {
      "constant": true,
      "inputs": [],
      "name": "curServiceIndex",
      "outputs": [
        {
          "name": "",
          "type": "uint256"
        }
      ],
      "payable": false,
      "stateMutability": "view",
      "type": "function"
    },
    {
      "constant": true,
      "inputs": [
        {
          "name": "_tokens",
          "type": "uint256"
        }
      ],
      "name": "amountToReserve",
      "outputs": [
        {
          "name": "",
          "type": "uint256"
        }
      ],
      "payable": false,
      "stateMutability": "view",
      "type": "function"
    },
    {
      "constant": true,
      "inputs": [],
      "name": "reserveAsset",
      "outputs": [
        {
          "name": "",
          "type": "address"
        }
      ],
      "payable": false,
      "stateMutability": "view",
      "type": "function"
    },
    {
      "payable": true,
      "stateMutability": "payable",
      "type": "fallback"
    },
    {
      "anonymous": false,
      "inputs": [
        {
          "indexed": false,
          "name": "newMetadata",
          "type": "bytes32"
        }
      ],
      "name": "MetadataUpdated",
      "type": "event"
    },
    {
      "anonymous": false,
      "inputs": [
        {
          "indexed": true,
          "name": "requestor",
          "type": "address"
        },
        {
          "indexed": true,
          "name": "serviceIndex",
          "type": "uint8"
        },
        {
          "indexed": false,
          "name": "message",
          "type": "string"
        }
      ],
      "name": "ServiceRequested",
      "type": "event"
    },
    {
      "anonymous": false,
      "inputs": [
        {
          "indexed": true,
          "name": "from",
          "type": "address"
        },
        {
          "indexed": true,
          "name": "to",
          "type": "address"
        },
        {
          "indexed": false,
          "name": "value",
          "type": "uint256"
        }
      ],
      "name": "Transfer",
      "type": "event"
    },
    {
      "anonymous": false,
      "inputs": [
        {
          "indexed": true,
          "name": "owner",
          "type": "address"
        },
        {
          "indexed": true,
          "name": "spender",
          "type": "address"
        },
        {
          "indexed": false,
          "name": "value",
          "type": "uint256"
        }
      ],
      "name": "Approval",
      "type": "event"
    },
    {
      "anonymous": false,
      "inputs": [
        {
          "indexed": true,
          "name": "buyer",
          "type": "address"
        },
        {
          "indexed": false,
          "name": "amount",
          "type": "uint256"
        },
        {
          "indexed": false,
          "name": "paid",
          "type": "uint256"
        }
      ],
      "name": "Bought",
      "type": "event"
    },
    {
      "anonymous": false,
      "inputs": [
        {
          "indexed": true,
          "name": "buyer",
          "type": "address"
        },
        {
          "indexed": false,
          "name": "contribution",
          "type": "uint256"
        }
      ],
      "name": "Contributed",
      "type": "event"
    },
    {
      "anonymous": false,
      "inputs": [
        {
          "indexed": true,
          "name": "seller",
          "type": "address"
        },
        {
          "indexed": false,
          "name": "amount",
          "type": "uint256"
        },
        {
          "indexed": false,
          "name": "reserveReturned",
          "type": "uint256"
        }
      ],
      "name": "Sold",
      "type": "event"
    },
    {
      "constant": false,
      "inputs": [
        {
          "name": "name",
          "type": "string"
        },
        {
          "name": "symbol",
          "type": "string"
        },
        {
          "name": "decimals",
          "type": "uint8"
        }
      ],
      "name": "initialize",
      "outputs": [],
      "payable": false,
      "stateMutability": "nonpayable",
      "type": "function"
    },
    {
      "constant": false,
      "inputs": [
        {
          "name": "_reserveAsset",
          "type": "address"
        },
        {
          "name": "_beneficiary",
          "type": "address"
        },
        {
          "name": "_slopeN",
          "type": "uint256"
        },
        {
          "name": "_slopeD",
          "type": "uint256"
        },
        {
          "name": "_exponent",
          "type": "uint256"
        },
        {
          "name": "_spreadN",
          "type": "uint256"
        },
        {
          "name": "_spreadD",
          "type": "uint256"
        },
        {
          "name": "_preMint",
          "type": "uint256"
        },
        {
          "name": "_metadata",
          "type": "bytes32"
        },
        {
          "name": "_name",
          "type": "string"
        },
        {
          "name": "_symbol",
          "type": "string"
        },
        {
          "name": "_gasPriceOracle",
          "type": "address"
        }
      ],
      "name": "initialize",
      "outputs": [],
      "payable": false,
      "stateMutability": "nonpayable",
      "type": "function"
    },
    {
      "constant": false,
      "inputs": [
        {
          "name": "_reserveAsset",
          "type": "address"
        },
        {
          "name": "_beneficiary",
          "type": "address"
        },
        {
          "name": "_slopeN",
          "type": "uint256"
        },
        {
          "name": "_slopeD",
          "type": "uint256"
        },
        {
          "name": "_exponent",
          "type": "uint256"
        },
        {
          "name": "_spreadN",
          "type": "uint256"
        },
        {
          "name": "_spreadD",
          "type": "uint256"
        },
        {
          "name": "_preMint",
          "type": "uint256"
        },
        {
          "name": "_name",
          "type": "string"
        },
        {
          "name": "_symbol",
          "type": "string"
        },
        {
          "name": "_gasPriceOracle",
          "type": "address"
        }
      ],
      "name": "initialize",
      "outputs": [],
      "payable": false,
      "stateMutability": "nonpayable",
      "type": "function"
    },
    {
      "constant": false,
      "inputs": [
        {
          "name": "_price",
          "type": "uint256"
        }
      ],
      "name": "addService",
      "outputs": [],
      "payable": false,
      "stateMutability": "nonpayable",
      "type": "function"
    },
    {
      "constant": false,
      "inputs": [
        {
          "name": "_serviceIndex",
          "type": "uint8"
        }
      ],
      "name": "removeService",
      "outputs": [],
      "payable": false,
      "stateMutability": "nonpayable",
      "type": "function"
    },
    {
      "constant": false,
      "inputs": [
        {
          "name": "_metadata",
          "type": "bytes32"
        }
      ],
      "name": "updateMetadata",
      "outputs": [],
      "payable": false,
      "stateMutability": "nonpayable",
      "type": "function"
    },
    {
      "constant": false,
      "inputs": [
        {
          "name": "_serviceIndex",
          "type": "uint8"
        },
        {
          "name": "_message",
          "type": "string"
        }
      ],
      "name": "requestService",
      "outputs": [],
      "payable": false,
      "stateMutability": "nonpayable",
      "type": "function"
    },
    {
      "constant": false,
      "inputs": [
        {
          "name": "_target",
          "type": "address"
        },
        {
          "name": "_data",
          "type": "bytes"
        }
      ],
      "name": "proxy",
      "outputs": [
        {
          "name": "",
          "type": "bool"
        }
      ],
      "payable": true,
      "stateMutability": "payable",
      "type": "function"
    },
    {
      "constant": true,
      "inputs": [],
      "name": "creator",
      "outputs": [
        {
          "name": "",
          "type": "address"
        }
      ],
      "payable": false,
      "stateMutability": "view",
      "type": "function"
    }
  ],
  "bytecode": "0x608060405234801561001057600080fd5b50613b02806100206000396000f3006080604052600436106101f9576000357c0100000000000000000000000000000000000000000000000000000000900463ffffffff168063029eabcb1461026757806302d05d3f1461029257806306fdde03146102e9578063095ea7b3146103795780631624f6c6146103de57806318160ddd1461049a5780631a1d0aca146104c55780631d3b34671461051c57806323b872dd146105475780632c135b93146105cc5780632ec02829146105f7578063304f90bb14610750578063313ce5671461077d57806332eb8f8b146107ae5780633781ca75146107d957806338af3eed14610804578063392f37e91461085b578063395093511461088e5780633ccfd60b146108f35780634f2d777814610922578063508218951461095357806352f6ee58146109c957806358ef5631146109f457806370a0823114610a2457806389c24e0914610a7b57806395d89b4114610bc65780639d1b464a14610c56578063a194c59c14610c81578063a457c2d714610cc2578063a9059cbb14610d27578063a94c7e1c14610d8c578063ba64506514610dcd578063be6d055a14610df8578063c22c4f4314610e8c578063cd3293de14610ecd578063d6febde814610ef8578063d79875eb14610f3a578063dd62ed3e14610f89578063e1fb21aa14611000578063eebbeef51461102b578063f85cb5c81461106c575b6040517f08c379a00000000000000000000000000000000000000000000000000000000081526004018080602001828103825260118152602001807f46616c6c6261636b2064697361626c656400000000000000000000000000000081525060200191505060405180910390fd5b34801561027357600080fd5b5061027c6110c3565b6040518082815260200191505060405180910390f35b34801561029e57600080fd5b506102a76110c9565b604051808273ffffffffffffffffffffffffffffffffffffffff1673ffffffffffffffffffffffffffffffffffffffff16815260200191505060405180910390f35b3480156102f557600080fd5b506102fe6110f3565b6040518080602001828103825283818151815260200191508051906020019080838360005b8381101561033e578082015181840152602081019050610323565b50505050905090810190601f16801561036b5780820380516001836020036101000a031916815260200191505b509250505060405180910390f35b34801561038557600080fd5b506103c4600480360381019080803573ffffffffffffffffffffffffffffffffffffffff16906020019092919080359060200190929190505050611195565b604051808215151515815260200191505060405180910390f35b3480156103ea57600080fd5b50610498600480360381019080803590602001908201803590602001908080601f0160208091040260200160405190810160405280939291908181526020018383808284378201915050505050509192919290803590602001908201803590602001908080601f0160208091040260200160405190810160405280939291908181526020018383808284378201915050505050509192919290803560ff1690602001909291905050506112c2565b005b3480156104a657600080fd5b506104af611443565b6040518082815260200191505060405180910390f35b3480156104d157600080fd5b506104da61144d565b604051808273ffffffffffffffffffffffffffffffffffffffff1673ffffffffffffffffffffffffffffffffffffffff16815260200191505060405180910390f35b34801561052857600080fd5b50610531611473565b6040518082815260200191505060405180910390f35b34801561055357600080fd5b506105b2600480360381019080803573ffffffffffffffffffffffffffffffffffffffff169060200190929190803573ffffffffffffffffffffffffffffffffffffffff16906020019092919080359060200190929190505050611479565b604051808215151515815260200191505060405180910390f35b3480156105d857600080fd5b506105e161162b565b6040518082815260200191505060405180910390f35b34801561060357600080fd5b5061074e600480360381019080803573ffffffffffffffffffffffffffffffffffffffff169060200190929190803573ffffffffffffffffffffffffffffffffffffffff1690602001909291908035906020019092919080359060200190929190803590602001909291908035906020019092919080359060200190929190803590602001909291908035600019169060200190929190803590602001908201803590602001908080601f0160208091040260200160405190810160405280939291908181526020018383808284378201915050505050509192919290803590602001908201803590602001908080601f0160208091040260200160405190810160405280939291908181526020018383808284378201915050505050509192919290803573ffffffffffffffffffffffffffffffffffffffff169060200190929190505050611653565b005b34801561075c57600080fd5b5061077b600480360381019080803590602001909291905050506117f1565b005b34801561078957600080fd5b50610792611862565b604051808260ff1660ff16815260200191505060405180910390f35b3480156107ba57600080fd5b506107c3611879565b6040518082815260200191505060405180910390f35b3480156107e557600080fd5b506107ee61187f565b6040518082815260200191505060405180910390f35b34801561081057600080fd5b50610819611885565b604051808273ffffffffffffffffffffffffffffffffffffffff1673ffffffffffffffffffffffffffffffffffffffff16815260200191505060405180910390f35b34801561086757600080fd5b506108706118ab565b60405180826000191660001916815260200191505060405180910390f35b34801561089a57600080fd5b506108d9600480360381019080803573ffffffffffffffffffffffffffffffffffffffff169060200190929190803590602001909291905050506118b1565b604051808215151515815260200191505060405180910390f35b3480156108ff57600080fd5b50610908611ae8565b604051808215151515815260200191505060405180910390f35b34801561092e57600080fd5b506109516004803603810190808035600019169060200190929190505050611d5d565b005b34801561095f57600080fd5b506109c7600480360381019080803560ff169060200190929190803590602001908201803590602001908080601f0160208091040260200160405190810160405280939291908181526020018383808284378201915050505050509192919290505050611deb565b005b3480156109d557600080fd5b506109de611f7c565b6040518082815260200191505060405180910390f35b348015610a0057600080fd5b50610a22600480360381019080803560ff169060200190929190505050611f82565b005b348015610a3057600080fd5b50610a65600480360381019080803573ffffffffffffffffffffffffffffffffffffffff169060200190929190505050612097565b6040518082815260200191505060405180910390f35b348015610a8757600080fd5b50610bc4600480360381019080803573ffffffffffffffffffffffffffffffffffffffff169060200190929190803573ffffffffffffffffffffffffffffffffffffffff169060200190929190803590602001909291908035906020019092919080359060200190929190803590602001909291908035906020019092919080359060200190929190803590602001908201803590602001908080601f0160208091040260200160405190810160405280939291908181526020018383808284378201915050505050509192919290803590602001908201803590602001908080601f0160208091040260200160405190810160405280939291908181526020018383808284378201915050505050509192919290803573ffffffffffffffffffffffffffffffffffffffff1690602001909291905050506120e0565b005b348015610bd257600080fd5b50610bdb612328565b6040518080602001828103825283818151815260200191508051906020019080838360005b83811015610c1b578082015181840152602081019050610c00565b50505050905090810190601f168015610c485780820380516001836020036101000a031916815260200191505b509250505060405180910390f35b348015610c6257600080fd5b50610c6b6123ca565b6040518082815260200191505060405180910390f35b348015610c8d57600080fd5b50610cac600480360381019080803590602001909291905050506123e1565b6040518082815260200191505060405180910390f35b348015610cce57600080fd5b50610d0d600480360381019080803573ffffffffffffffffffffffffffffffffffffffff1690602001909291908035906020019092919050505061242d565b604051808215151515815260200191505060405180910390f35b348015610d3357600080fd5b50610d72600480360381019080803573ffffffffffffffffffffffffffffffffffffffff16906020019092919080359060200190929190505050612664565b604051808215151515815260200191505060405180910390f35b348015610d9857600080fd5b50610db76004803603810190808035906020019092919050505061267b565b6040518082815260200191505060405180910390f35b348015610dd957600080fd5b50610de26126e2565b6040518082815260200191505060405180910390f35b610e72600480360381019080803573ffffffffffffffffffffffffffffffffffffffff169060200190929190803590602001908201803590602001908080601f01602080910402602001604051908101604052809392919081815260200183838082843782019150505050505091929192905050506126e8565b604051808215151515815260200191505060405180910390f35b348015610e9857600080fd5b50610eb7600480360381019080803590602001909291905050506127bb565b6040518082815260200191505060405180910390f35b348015610ed957600080fd5b50610ee26127d3565b6040518082815260200191505060405180910390f35b610f2060048036038101908080359060200190929190803590602001909291905050506127d9565b604051808215151515815260200191505060405180910390f35b348015610f4657600080fd5b50610f6f6004803603810190808035906020019092919080359060200190929190505050612dc3565b604051808215151515815260200191505060405180910390f35b348015610f9557600080fd5b50610fea600480360381019080803573ffffffffffffffffffffffffffffffffffffffff169060200190929190803573ffffffffffffffffffffffffffffffffffffffff1690602001909291905050506132da565b6040518082815260200191505060405180910390f35b34801561100c57600080fd5b50611015613361565b6040518082815260200191505060405180910390f35b34801561103757600080fd5b5061105660048036038101908080359060200190929190505050613367565b6040518082815260200191505060405180910390f35b34801561107857600080fd5b506110816133ce565b604051808273ffffffffffffffffffffffffffffffffffffffff1673ffffffffffffffffffffffffffffffffffffffff16815260200191505060405180910390f35b60a05481565b6000609f60009054906101000a900473ffffffffffffffffffffffffffffffffffffffff16905090565b606060688054600181600116156101000203166002900480601f01602080910402602001604051908101604052809291908181526020018280546001816001161561010002031660029004801561118b5780601f106111605761010080835404028352916020019161118b565b820191906000526020600020905b81548152906001019060200180831161116e57829003601f168201915b5050505050905090565b60008073ffffffffffffffffffffffffffffffffffffffff168373ffffffffffffffffffffffffffffffffffffffff16141515156111d257600080fd5b81603460003373ffffffffffffffffffffffffffffffffffffffff1673ffffffffffffffffffffffffffffffffffffffff16815260200190815260200160002060008573ffffffffffffffffffffffffffffffffffffffff1673ffffffffffffffffffffffffffffffffffffffff168152602001908152602001600020819055508273ffffffffffffffffffffffffffffffffffffffff163373ffffffffffffffffffffffffffffffffffffffff167f8c5be1e5ebec7d5bd14f71427d1e84f3dd0314c0f7b2291e5b200ac8c7c3b925846040518082815260200191505060405180910390a36001905092915050565b60008060019054906101000a900460ff16806112e257506112e16133f4565b5b806112f957506000809054906101000a900460ff16155b1515611393576040517f08c379a000000000000000000000000000000000000000000000000000000000815260040180806020018281038252602e8152602001807f436f6e747261637420696e7374616e63652068617320616c726561647920626581526020017f656e20696e697469616c697a656400000000000000000000000000000000000081525060400191505060405180910390fd5b600060019054906101000a900460ff1690506001600060016101000a81548160ff02191690831515021790555060016000806101000a81548160ff02191690831515021790555083606890805190602001906113f0929190613a31565b508260699080519060200190611407929190613a31565b5081606a60006101000a81548160ff021916908360ff16021790555080600060016101000a81548160ff02191690831515021790555050505050565b6000603554905090565b60a660009054906101000a900473ffffffffffffffffffffffffffffffffffffffff1681565b60a25481565b6000603460008573ffffffffffffffffffffffffffffffffffffffff1673ffffffffffffffffffffffffffffffffffffffff16815260200190815260200160002060003373ffffffffffffffffffffffffffffffffffffffff1673ffffffffffffffffffffffffffffffffffffffff16815260200190815260200160002054821115151561150657600080fd5b61159582603460008773ffffffffffffffffffffffffffffffffffffffff1673ffffffffffffffffffffffffffffffffffffffff16815260200190815260200160002060003373ffffffffffffffffffffffffffffffffffffffff1673ffffffffffffffffffffffffffffffffffffffff1681526020019081526020016000205461340590919063ffffffff16565b603460008673ffffffffffffffffffffffffffffffffffffffff1673ffffffffffffffffffffffffffffffffffffffff16815260200190815260200160002060003373ffffffffffffffffffffffffffffffffffffffff1673ffffffffffffffffffffffffffffffffffffffff16815260200190815260200160002081905550611620848484613426565b600190509392505050565b600061164e611638611443565b6116406123ca565b61364490919063ffffffff16565b905090565b60008060019054906101000a900460ff168061167357506116726133f4565b5b8061168a57506000809054906101000a900460ff16155b1515611724576040517f08c379a000000000000000000000000000000000000000000000000000000000815260040180806020018281038252602e8152602001807f436f6e747261637420696e7374616e63652068617320616c726561647920626581526020017f656e20696e697469616c697a656400000000000000000000000000000000000081525060400191505060405180910390fd5b600060019054906101000a900460ff1690506001600060016101000a81548160ff02191690831515021790555060016000806101000a81548160ff02191690831515021790555061177e8d8d8d8d8d8d8d8d8c8c8c6120e0565b8460a781600019169055507f6e27af24ead46b4b469e383b46b4b75487fcf1ffce54d216add332f9de2120c58560405180826000191660001916815260200191505060405180910390a180600060016101000a81548160ff02191690831515021790555050505050505050505050505050565b6117f96110c9565b73ffffffffffffffffffffffffffffffffffffffff163373ffffffffffffffffffffffffffffffffffffffff1614151561183257600080fd5b8060a9600060a854815260200190815260200160002081905550611859600160a854613682565b60a88190555050565b6000606a60009054906101000a900460ff16905090565b60a15481565b60a55481565b609f60009054906101000a900473ffffffffffffffffffffffffffffffffffffffff1681565b60a75481565b60008073ffffffffffffffffffffffffffffffffffffffff168373ffffffffffffffffffffffffffffffffffffffff16141515156118ee57600080fd5b61197d82603460003373ffffffffffffffffffffffffffffffffffffffff1673ffffffffffffffffffffffffffffffffffffffff16815260200190815260200160002060008673ffffffffffffffffffffffffffffffffffffffff1673ffffffffffffffffffffffffffffffffffffffff1681526020019081526020016000205461368290919063ffffffff16565b603460003373ffffffffffffffffffffffffffffffffffffffff1673ffffffffffffffffffffffffffffffffffffffff16815260200190815260200160002060008573ffffffffffffffffffffffffffffffffffffffff1673ffffffffffffffffffffffffffffffffffffffff168152602001908152602001600020819055508273ffffffffffffffffffffffffffffffffffffffff163373ffffffffffffffffffffffffffffffffffffffff167f8c5be1e5ebec7d5bd14f71427d1e84f3dd0314c0f7b2291e5b200ac8c7c3b925603460003373ffffffffffffffffffffffffffffffffffffffff1673ffffffffffffffffffffffffffffffffffffffff16815260200190815260200160002060008773ffffffffffffffffffffffffffffffffffffffff1673ffffffffffffffffffffffffffffffffffffffff168152602001908152602001600020546040518082815260200191505060405180910390a36001905092915050565b60008060a054111515611b63576040517f08c379a00000000000000000000000000000000000000000000000000000000081526004018080602001828103825260188152602001807f43616e6e6f74207769746864726177203020616d6f756e74000000000000000081525060200191505060405180910390fd5b600073ffffffffffffffffffffffffffffffffffffffff16609d60009054906101000a900473ffffffffffffffffffffffffffffffffffffffff1673ffffffffffffffffffffffffffffffffffffffff161415611c2a57609f60009054906101000a900473ffffffffffffffffffffffffffffffffffffffff1673ffffffffffffffffffffffffffffffffffffffff166108fc60a0549081150290604051600060405180830381858888f19350505050158015611c24573d6000803e3d6000fd5b50611d50565b609d60009054906101000a900473ffffffffffffffffffffffffffffffffffffffff1673ffffffffffffffffffffffffffffffffffffffff1663a9059cbb609f60009054906101000a900473ffffffffffffffffffffffffffffffffffffffff1660a0546040518363ffffffff167c0100000000000000000000000000000000000000000000000000000000028152600401808373ffffffffffffffffffffffffffffffffffffffff1673ffffffffffffffffffffffffffffffffffffffff16815260200182815260200192505050602060405180830381600087803b158015611d1357600080fd5b505af1158015611d27573d6000803e3d6000fd5b505050506040513d6020811015611d3d57600080fd5b8101908080519060200190929190505050505b60a0600090556001905090565b611d656110c9565b73ffffffffffffffffffffffffffffffffffffffff163373ffffffffffffffffffffffffffffffffffffffff16141515611d9e57600080fd5b8060a781600019169055507f6e27af24ead46b4b469e383b46b4b75487fcf1ffce54d216add332f9de2120c58160405180826000191660001916815260200191505060405180910390a150565b600060a960008460ff16815260200190815260200160002054905080611e1133306132da565b10151515611ead576040517f08c379a00000000000000000000000000000000000000000000000000000000081526004018080602001828103825260278152602001807f4d7573742067697665207468697320636f6e747261637420616c6c6f77616e6381526020017f652066697273740000000000000000000000000000000000000000000000000081525060400191505060405180910390fd5b611ebf33611eb96110c9565b83611479565b508260ff163373ffffffffffffffffffffffffffffffffffffffff167f2147cdc9df7a2bbb10f8bf0833ba6200909868bd84b6ca56c756a794b2a53f4f846040518080602001828103825283818151815260200191508051906020019080838360005b83811015611f3d578082015181840152602081019050611f22565b50505050905090810190601f168015611f6a5780820380516001836020036101000a031916815260200191505b509250505060405180910390a3505050565b60a35481565b611f8a6110c9565b73ffffffffffffffffffffffffffffffffffffffff163373ffffffffffffffffffffffffffffffffffffffff16141515611fc357600080fd5b600060a960008360ff1681526020019081526020016000205414151515612078576040517f08c379a000000000000000000000000000000000000000000000000000000000815260040180806020018281038252602a8152602001807f53657276696365206e6f7420696e697469616c697a6564206f7220616c72656181526020017f64792072656d6f7665640000000000000000000000000000000000000000000081525060400191505060405180910390fd5b600060a960008360ff1681526020019081526020016000208190555050565b6000603360008373ffffffffffffffffffffffffffffffffffffffff1673ffffffffffffffffffffffffffffffffffffffff168152602001908152602001600020549050919050565b60008060019054906101000a900460ff168061210057506120ff6133f4565b5b8061211757506000809054906101000a900460ff16155b15156121b1576040517f08c379a000000000000000000000000000000000000000000000000000000000815260040180806020018281038252602e8152602001807f436f6e747261637420696e7374616e63652068617320616c726561647920626581526020017f656e20696e697469616c697a656400000000000000000000000000000000000081525060400191505060405180910390fd5b600060019054906101000a900460ff1690506001600060016101000a81548160ff02191690831515021790555060016000806101000a81548160ff021916908315150217905550612204848460126112c2565b600085111561221a57612219611337866136a3565b5b8b609d60006101000a81548173ffffffffffffffffffffffffffffffffffffffff021916908373ffffffffffffffffffffffffffffffffffffffff1602179055508a609f60006101000a81548173ffffffffffffffffffffffffffffffffffffffff021916908373ffffffffffffffffffffffffffffffffffffffff1602179055508960a1819055508860a2819055508760a3819055508660a4819055508560a5819055508160a660006101000a81548173ffffffffffffffffffffffffffffffffffffffff021916908373ffffffffffffffffffffffffffffffffffffffff16021790555080600060016101000a81548160ff021916908315150217905550505050505050505050505050565b606060698054600181600116156101000203166002900480601f0160208091040260200160405190810160405280929190818152602001828054600181600116156101000203166002900480156123c05780601f10612395576101008083540402835291602001916123c0565b820191906000526020600020905b8154815290600101906020018083116123a357829003601f168201915b5050505050905090565b60006123dc6123d7611443565b6137e3565b905090565b60006124266123f66123f1611443565b613819565b61241861241385612405611443565b61368290919063ffffffff16565b613819565b61340590919063ffffffff16565b9050919050565b60008073ffffffffffffffffffffffffffffffffffffffff168373ffffffffffffffffffffffffffffffffffffffff161415151561246a57600080fd5b6124f982603460003373ffffffffffffffffffffffffffffffffffffffff1673ffffffffffffffffffffffffffffffffffffffff16815260200190815260200160002060008673ffffffffffffffffffffffffffffffffffffffff1673ffffffffffffffffffffffffffffffffffffffff1681526020019081526020016000205461340590919063ffffffff16565b603460003373ffffffffffffffffffffffffffffffffffffffff1673ffffffffffffffffffffffffffffffffffffffff16815260200190815260200160002060008573ffffffffffffffffffffffffffffffffffffffff1673ffffffffffffffffffffffffffffffffffffffff168152602001908152602001600020819055508273ffffffffffffffffffffffffffffffffffffffff163373ffffffffffffffffffffffffffffffffffffffff167f8c5be1e5ebec7d5bd14f71427d1e84f3dd0314c0f7b2291e5b200ac8c7c3b925603460003373ffffffffffffffffffffffffffffffffffffffff1673ffffffffffffffffffffffffffffffffffffffff16815260200190815260200160002060008773ffffffffffffffffffffffffffffffffffffffff1673ffffffffffffffffffffffffffffffffffffffff168152602001908152602001600020546040518082815260200191505060405180910390a36001905092915050565b6000612671338484613426565b6001905092915050565b60006126db6126ca60a5546126bc6126ab6126a687612698611443565b61340590919063ffffffff16565b613819565b60a45461364490919063ffffffff16565b61387990919063ffffffff16565b609e5461340590919063ffffffff16565b9050919050565b60a45481565b60006126f26110c9565b73ffffffffffffffffffffffffffffffffffffffff163373ffffffffffffffffffffffffffffffffffffffff1614151561272b57600080fd5b8273ffffffffffffffffffffffffffffffffffffffff16348360405180828051906020019080838360005b83811015612771578082015181840152602081019050612756565b50505050905090810190601f16801561279e5780820380516001836020036101000a031916815260200191505b5091505060006040518083038185875af192505050905092915050565b60a96020528060005260406000206000915090505481565b609e5481565b600080600060a660009054906101000a900473ffffffffffffffffffffffffffffffffffffffff1673ffffffffffffffffffffffffffffffffffffffff1663501d815c6040518163ffffffff167c0100000000000000000000000000000000000000000000000000000000028152600401602060405180830381600087803b15801561286457600080fd5b505af1158015612878573d6000803e3d6000fd5b505050506040513d602081101561288e57600080fd5b81019080805190602001909291905050503a1115151561293c576040517f08c379a00000000000000000000000000000000000000000000000000000000081526004018080602001828103825260318152602001807f5472616e73616374696f6e20676173207072696365206578636565647320746881526020017f65206f7261636c65206d6178206761732e00000000000000000000000000000081525060400191505060405180910390fd5b600060a660009054906101000a900473ffffffffffffffffffffffffffffffffffffffff1673ffffffffffffffffffffffffffffffffffffffff1663501d815c6040518163ffffffff167c0100000000000000000000000000000000000000000000000000000000028152600401602060405180830381600087803b1580156129c457600080fd5b505af11580156129d8573d6000803e3d6000fd5b505050506040513d60208110156129ee57600080fd5b8101908080519060200190929190505050111515612a9a576040517f08c379a00000000000000000000000000000000000000000000000000000000081526004018080602001828103825260288152602001807f53797374656d20686173206265656e207368757420646f776e2061742074686581526020017f206f7261636c652e00000000000000000000000000000000000000000000000081525060400191505060405180910390fd5b612aa3856123e1565b9150838211151515612ab457600080fd5b612abd85613367565b9050612ae6612ad5828461340590919063ffffffff16565b60a05461368290919063ffffffff16565b60a081905550612b0181609e5461368290919063ffffffff16565b609e81905550600073ffffffffffffffffffffffffffffffffffffffff16609d60009054906101000a900473ffffffffffffffffffffffffffffffffffffffff1673ffffffffffffffffffffffffffffffffffffffff161415612bc55781341115612bc0573373ffffffffffffffffffffffffffffffffffffffff166108fc612b93843461340590919063ffffffff16565b9081150290604051600060405180830381858888f19350505050158015612bbe573d6000803e3d6000fd5b505b612cfb565b609d60009054906101000a900473ffffffffffffffffffffffffffffffffffffffff1673ffffffffffffffffffffffffffffffffffffffff166323b872dd3330856040518463ffffffff167c0100000000000000000000000000000000000000000000000000000000028152600401808473ffffffffffffffffffffffffffffffffffffffff1673ffffffffffffffffffffffffffffffffffffffff1681526020018373ffffffffffffffffffffffffffffffffffffffff1673ffffffffffffffffffffffffffffffffffffffff1681526020018281526020019350505050602060405180830381600087803b158015612cbe57600080fd5b505af1158015612cd2573d6000803e3d6000fd5b505050506040513d6020811015612ce857600080fd5b8101908080519060200190929190505050505b612d0533866136a3565b3373ffffffffffffffffffffffffffffffffffffffff167f62722348256371b5147820d6cad90c40fd2da1ccee18c3ed52c0bca5a61dbbab612d50838561340590919063ffffffff16565b6040518082815260200191505060405180910390a23373ffffffffffffffffffffffffffffffffffffffff167fa9a40dec7a304e5915d11358b968c1e8d365992abf20f82285d1df1b30c8e24c8684604051808381526020018281526020019250505060405180910390a2505092915050565b60008060a660009054906101000a900473ffffffffffffffffffffffffffffffffffffffff1673ffffffffffffffffffffffffffffffffffffffff1663501d815c6040518163ffffffff167c0100000000000000000000000000000000000000000000000000000000028152600401602060405180830381600087803b158015612e4c57600080fd5b505af1158015612e60573d6000803e3d6000fd5b505050506040513d6020811015612e7657600080fd5b81019080805190602001909291905050503a11151515612f24576040517f08c379a00000000000000000000000000000000000000000000000000000000081526004018080602001828103825260318152602001807f5472616e73616374696f6e20676173207072696365206578636565647320746881526020017f65206f7261636c65206d6178206761732e00000000000000000000000000000081525060400191505060405180910390fd5b600060a660009054906101000a900473ffffffffffffffffffffffffffffffffffffffff1673ffffffffffffffffffffffffffffffffffffffff1663501d815c6040518163ffffffff167c0100000000000000000000000000000000000000000000000000000000028152600401602060405180830381600087803b158015612fac57600080fd5b505af1158015612fc0573d6000803e3d6000fd5b505050506040513d6020811015612fd657600080fd5b8101908080519060200190929190505050111515613082576040517f08c379a00000000000000000000000000000000000000000000000000000000081526004018080602001828103825260288152602001807f53797374656d20686173206265656e207368757420646f776e2061742074686581526020017f206f7261636c652e00000000000000000000000000000000000000000000000081525060400191505060405180910390fd5b8361308c33612097565b1015151561309957600080fd5b6130a28461267b565b90508281101515156130b357600080fd5b6130c881609e5461340590919063ffffffff16565b609e81905550600073ffffffffffffffffffffffffffffffffffffffff16609d60009054906101000a900473ffffffffffffffffffffffffffffffffffffffff1673ffffffffffffffffffffffffffffffffffffffff161415613171573373ffffffffffffffffffffffffffffffffffffffff166108fc829081150290604051600060405180830381858888f1935050505015801561316b573d6000803e3d6000fd5b50613273565b609d60009054906101000a900473ffffffffffffffffffffffffffffffffffffffff1673ffffffffffffffffffffffffffffffffffffffff1663a9059cbb33836040518363ffffffff167c0100000000000000000000000000000000000000000000000000000000028152600401808373ffffffffffffffffffffffffffffffffffffffff1673ffffffffffffffffffffffffffffffffffffffff16815260200182815260200192505050602060405180830381600087803b15801561323657600080fd5b505af115801561324a573d6000803e3d6000fd5b505050506040513d602081101561326057600080fd5b8101908080519060200190929190505050505b61327d33856138a3565b3373ffffffffffffffffffffffffffffffffffffffff167fbac9694ac0daa55169abd117086fe32c89401d9a3b15dd1d34e55e0aa4e47a9d8583604051808381526020018281526020019250505060405180910390a25092915050565b6000603460008473ffffffffffffffffffffffffffffffffffffffff1673ffffffffffffffffffffffffffffffffffffffff16815260200190815260200160002060008373ffffffffffffffffffffffffffffffffffffffff1673ffffffffffffffffffffffffffffffffffffffff16815260200190815260200160002054905092915050565b60a85481565b60006133c7609e546133b960a5546133ab61339a61339588613387611443565b61368290919063ffffffff16565b613819565b60a45461364490919063ffffffff16565b61387990919063ffffffff16565b61340590919063ffffffff16565b9050919050565b609d60009054906101000a900473ffffffffffffffffffffffffffffffffffffffff1681565b600080303b90506000811491505090565b60008083831115151561341757600080fd5b82840390508091505092915050565b603360008473ffffffffffffffffffffffffffffffffffffffff1673ffffffffffffffffffffffffffffffffffffffff16815260200190815260200160002054811115151561347457600080fd5b600073ffffffffffffffffffffffffffffffffffffffff168273ffffffffffffffffffffffffffffffffffffffff16141515156134b057600080fd5b61350281603360008673ffffffffffffffffffffffffffffffffffffffff1673ffffffffffffffffffffffffffffffffffffffff1681526020019081526020016000205461340590919063ffffffff16565b603360008573ffffffffffffffffffffffffffffffffffffffff1673ffffffffffffffffffffffffffffffffffffffff1681526020019081526020016000208190555061359781603360008573ffffffffffffffffffffffffffffffffffffffff1673ffffffffffffffffffffffffffffffffffffffff1681526020019081526020016000205461368290919063ffffffff16565b603360008473ffffffffffffffffffffffffffffffffffffffff1673ffffffffffffffffffffffffffffffffffffffff168152602001908152602001600020819055508173ffffffffffffffffffffffffffffffffffffffff168373ffffffffffffffffffffffffffffffffffffffff167fddf252ad1be2c89b69c2b068fc378daa952ba7f163c4a11628f55a4df523b3ef836040518082815260200191505060405180910390a3505050565b6000806000841415613659576000915061367b565b828402905082848281151561366a57fe5b0414151561367757600080fd5b8091505b5092915050565b600080828401905083811015151561369957600080fd5b8091505092915050565b60008273ffffffffffffffffffffffffffffffffffffffff16141515156136c957600080fd5b6136de8160355461368290919063ffffffff16565b60358190555061373681603360008573ffffffffffffffffffffffffffffffffffffffff1673ffffffffffffffffffffffffffffffffffffffff1681526020019081526020016000205461368290919063ffffffff16565b603360008473ffffffffffffffffffffffffffffffffffffffff1673ffffffffffffffffffffffffffffffffffffffff168152602001908152602001600020819055508173ffffffffffffffffffffffffffffffffffffffff16600073ffffffffffffffffffffffffffffffffffffffff167fddf252ad1be2c89b69c2b068fc378daa952ba7f163c4a11628f55a4df523b3ef836040518082815260200191505060405180910390a35050565b600061381260a15461380460a354850a60a15461364490919063ffffffff16565b61387990919063ffffffff16565b9050919050565b600080613832600160a35461368290919063ffffffff16565b905061387160a2546138638361385585880a60a15461364490919063ffffffff16565b61387990919063ffffffff16565b61387990919063ffffffff16565b915050919050565b60008060008311151561388b57600080fd5b828481151561389657fe5b0490508091505092915050565b60008273ffffffffffffffffffffffffffffffffffffffff16141515156138c957600080fd5b603360008373ffffffffffffffffffffffffffffffffffffffff1673ffffffffffffffffffffffffffffffffffffffff16815260200190815260200160002054811115151561391757600080fd5b61392c8160355461340590919063ffffffff16565b60358190555061398481603360008573ffffffffffffffffffffffffffffffffffffffff1673ffffffffffffffffffffffffffffffffffffffff1681526020019081526020016000205461340590919063ffffffff16565b603360008473ffffffffffffffffffffffffffffffffffffffff1673ffffffffffffffffffffffffffffffffffffffff16815260200190815260200160002081905550600073ffffffffffffffffffffffffffffffffffffffff168273ffffffffffffffffffffffffffffffffffffffff167fddf252ad1be2c89b69c2b068fc378daa952ba7f163c4a11628f55a4df523b3ef836040518082815260200191505060405180910390a35050565b828054600181600116156101000203166002900490600052602060002090601f016020900481019282601f10613a7257805160ff1916838001178555613aa0565b82800160010185558215613aa0579182015b82811115613a9f578251825591602001919060010190613a84565b5b509050613aad9190613ab1565b5090565b613ad391905b80821115613acf576000816000905550600101613ab7565b5090565b905600a165627a7a723058201ed1e825350b7dd7e9c2f282723261b94b656d3ed065912cf3306245ad14e52f0029",
  "source": "pragma solidity ^0.4.24;\n\nimport \"zos-lib/contracts/Initializable.sol\";\nimport \"zos-lib/contracts/upgradeability/AdminUpgradeabilityProxy.sol\";\n\nimport \"./DoubleCurveToken.sol\";\n\n/**\n * @title Account\n * @dev   Manages the logic for user accounts on Convergent.\n */\ncontract Account is Initializable, DoubleCurveToken {\n    event MetadataUpdated(bytes32 newMetadata);\n    event ServiceRequested(address indexed requestor, uint8 indexed serviceIndex, string message);\n\n    bytes32 public metadata;\n\n    uint256 public curServiceIndex;\n    // serviceIndex => servicePrice\n    mapping (uint256 => uint256) public services;\n\n    function initialize(\n        address _reserveAsset,\n        address _beneficiary,\n        uint256 _slopeN,\n        uint256 _slopeD,\n        uint256 _exponent,\n        uint256 _spreadN,\n        uint256 _spreadD,\n        uint256 _preMint,\n        bytes32 _metadata,\n        string _name,\n        string _symbol,\n        address _gasPriceOracle\n    )   initializer\n        public\n    {    \n        DoubleCurveToken.initialize(\n            _reserveAsset,\n            _beneficiary,\n            _slopeN,\n            _slopeD,\n            _exponent,\n            _spreadN,\n            _spreadD,\n            _preMint,\n            _name,\n            _symbol,\n            _gasPriceOracle\n        );\n\n        metadata = _metadata;\n        emit MetadataUpdated(_metadata);\n    }\n\n    function addService(\n        uint256 _price\n    )   onlyCreator\n        public\n    {\n        services[curServiceIndex] = _price;\n        curServiceIndex = SafeMath.add(1, curServiceIndex);\n    }\n\n    function removeService(\n        uint8 _serviceIndex\n    )   public\n        onlyCreator\n    {\n        require(\n            services[_serviceIndex] != 0,\n            \"Service not initialized or already removed\"\n        );\n        services[_serviceIndex] = 0;\n    }\n\n    function updateMetadata(\n        bytes32 _metadata\n    )   onlyCreator\n        public\n    {\n        metadata = _metadata;\n\n        emit MetadataUpdated(_metadata);\n    }\n\n    function requestService(\n        uint8 _serviceIndex,\n        string _message\n    )   public\n    {\n        uint256 price = services[_serviceIndex];\n        \n        require(\n            allowance(msg.sender, address(this)) >= price,\n            \"Must give this contract allowance first\"\n        );\n\n        transferFrom(msg.sender, creator(), price);\n\n        emit ServiceRequested(msg.sender, _serviceIndex, _message);\n    }\n\n    function proxy(address _target, bytes _data)\n        public payable onlyCreator returns (bool)\n    {\n        return _target.call.value(msg.value)(_data);\n    }\n\n    function creator() public view returns (address) {\n        return beneficiary;\n    }\n\n    modifier onlyCreator() {\n        require(msg.sender == creator());\n        _;\n    }\n}\n",
  "sourcePath": "/home/volt/workspaces/convergentcx/liquid/contracts/Account.sol",
  "compiler": {
    "name": "solc",
    "version": "0.4.25+commit.59dbf8f1.Emscripten.clang"
  },
  "schemaVersion": "3.0.1",
  "updatedAt": "2019-02-07T10:02:28.521Z",
  "devdoc": {
    "methods": {
      "allowance(address,address)": {
        "details": "Function to check the amount of tokens that an owner allowed to a spender.",
        "params": {
          "owner": "address The address which owns the funds.",
          "spender": "address The address which will spend the funds."
        },
        "return": "A uint256 specifying the amount of tokens still available for the spender."
      },
      "approve(address,uint256)": {
        "details": "Approve the passed address to spend the specified amount of tokens on behalf of msg.sender. Beware that changing an allowance with this method brings the risk that someone may use both the old and the new allowance by unfortunate transaction ordering. One possible solution to mitigate this race condition is to first reduce the spender's allowance to 0 and set the desired value afterwards: https://github.com/ethereum/EIPs/issues/20#issuecomment-263524729",
        "params": {
          "spender": "The address which will spend the funds.",
          "value": "The amount of tokens to be spent."
        }
      },
      "balanceOf(address)": {
        "details": "Gets the balance of the specified address.",
        "params": {
          "owner": "The address to query the the balance of."
        },
        "return": "An uint256 representing the amount owned by the passed address."
      },
      "decimals()": {
        "return": "the number of decimals of the token."
      },
      "decreaseAllowance(address,uint256)": {
        "details": "Decrease the amount of tokens that an owner allowed to a spender. approve should be called when allowed_[_spender] == 0. To decrement allowed value is better to use this function to avoid 2 calls (and wait until the first transaction is mined) From MonolithDAO Token.sol",
        "params": {
          "spender": "The address which will spend the funds.",
          "subtractedValue": "The amount of tokens to decrease the allowance by."
        }
      },
      "increaseAllowance(address,uint256)": {
        "details": "Increase the amount of tokens that an owner allowed to a spender. approve should be called when allowed_[_spender] == 0. To increment allowed value is better to use this function to avoid 2 calls (and wait until the first transaction is mined) From MonolithDAO Token.sol",
        "params": {
          "addedValue": "The amount of tokens to increase the allowance by.",
          "spender": "The address which will spend the funds."
        }
      },
      "name()": {
        "return": "the name of the token."
      },
      "symbol()": {
        "return": "the symbol of the token."
      },
      "totalSupply()": {
        "details": "Total number of tokens in existence"
      },
      "transfer(address,uint256)": {
        "details": "Transfer token for a specified address",
        "params": {
          "to": "The address to transfer to.",
          "value": "The amount to be transferred."
        }
      },
      "transferFrom(address,address,uint256)": {
        "details": "Transfer tokens from one address to another",
        "params": {
          "from": "address The address which you want to send tokens from",
          "to": "address The address which you want to transfer to",
          "value": "uint256 the amount of tokens to be transferred"
        }
      }
    },
    "title": "Account"
  },
  "userdoc": {
    "methods": {}
  }
}