{
  "contractName": "ConvergentBeta",
  "abi": [
    {
      "constant": true,
      "inputs": [],
      "name": "baseAccount",
      "outputs": [
        {
          "name": "",
          "type": "address"
        }
      ],
      "payable": false,
      "stateMutability": "view",
      "type": "function"
    },
    {
      "constant": true,
      "inputs": [],
      "name": "gasPriceOracle",
      "outputs": [
        {
          "name": "",
          "type": "address"
        }
      ],
      "payable": false,
      "stateMutability": "view",
      "type": "function"
    },
    {
      "constant": false,
      "inputs": [],
      "name": "renounceOwnership",
      "outputs": [],
      "payable": false,
      "stateMutability": "nonpayable",
      "type": "function"
    },
    {
      "constant": true,
      "inputs": [],
      "name": "owner",
      "outputs": [
        {
          "name": "",
          "type": "address"
        }
      ],
      "payable": false,
      "stateMutability": "view",
      "type": "function"
    },
    {
      "constant": true,
      "inputs": [],
      "name": "isOwner",
      "outputs": [
        {
          "name": "",
          "type": "bool"
        }
      ],
      "payable": false,
      "stateMutability": "view",
      "type": "function"
    },
    {
      "constant": true,
      "inputs": [
        {
          "name": "",
          "type": "address"
        }
      ],
      "name": "accountToCreator",
      "outputs": [
        {
          "name": "",
          "type": "address"
        }
      ],
      "payable": false,
      "stateMutability": "view",
      "type": "function"
    },
    {
      "constant": false,
      "inputs": [
        {
          "name": "newOwner",
          "type": "address"
        }
      ],
      "name": "transferOwnership",
      "outputs": [],
      "payable": false,
      "stateMutability": "nonpayable",
      "type": "function"
    },
    {
      "anonymous": false,
      "inputs": [
        {
          "indexed": false,
          "name": "account",
          "type": "address"
        },
        {
          "indexed": true,
          "name": "creator",
          "type": "address"
        }
      ],
      "name": "NewAccount",
      "type": "event"
    },
    {
      "anonymous": false,
      "inputs": [
        {
          "indexed": true,
          "name": "previousOwner",
          "type": "address"
        }
      ],
      "name": "OwnershipRenounced",
      "type": "event"
    },
    {
      "anonymous": false,
      "inputs": [
        {
          "indexed": true,
          "name": "previousOwner",
          "type": "address"
        },
        {
          "indexed": true,
          "name": "newOwner",
          "type": "address"
        }
      ],
      "name": "OwnershipTransferred",
      "type": "event"
    },
    {
      "constant": false,
      "inputs": [
        {
          "name": "_baseAccount",
          "type": "address"
        },
        {
          "name": "_gasPriceOracle",
          "type": "address"
        }
      ],
      "name": "initialize",
      "outputs": [],
      "payable": false,
      "stateMutability": "nonpayable",
      "type": "function"
    },
    {
      "constant": false,
      "inputs": [
        {
          "name": "sender",
          "type": "address"
        }
      ],
      "name": "initialize",
      "outputs": [],
      "payable": false,
      "stateMutability": "nonpayable",
      "type": "function"
    },
    {
      "constant": false,
      "inputs": [
        {
          "name": "_newBaseAccount",
          "type": "address"
        }
      ],
      "name": "setBaseAccount",
      "outputs": [
        {
          "name": "",
          "type": "bool"
        }
      ],
      "payable": false,
      "stateMutability": "nonpayable",
      "type": "function"
    },
    {
      "constant": false,
      "inputs": [
        {
          "name": "_reserveAsset",
          "type": "address"
        },
        {
          "name": "_slopeN",
          "type": "uint256"
        },
        {
          "name": "_slopeD",
          "type": "uint256"
        },
        {
          "name": "_exponent",
          "type": "uint256"
        },
        {
          "name": "_spreadN",
          "type": "uint256"
        },
        {
          "name": "_spreadD",
          "type": "uint256"
        },
        {
          "name": "_preMint",
          "type": "uint256"
        },
        {
          "name": "_metadata",
          "type": "bytes32"
        },
        {
          "name": "_name",
          "type": "string"
        },
        {
          "name": "_symbol",
          "type": "string"
        }
      ],
      "name": "createAccount",
      "outputs": [
        {
          "name": "",
          "type": "address"
        }
      ],
      "payable": false,
      "stateMutability": "nonpayable",
      "type": "function"
    },
    {
      "constant": false,
      "inputs": [
        {
          "name": "_account",
          "type": "address"
        }
      ],
      "name": "upgradeAccount",
      "outputs": [
        {
          "name": "",
          "type": "bool"
        }
      ],
      "payable": false,
      "stateMutability": "nonpayable",
      "type": "function"
    },
    {
      "constant": true,
      "inputs": [
        {
          "name": "_account",
          "type": "address"
        }
      ],
      "name": "getImplementationForAccount",
      "outputs": [
        {
          "name": "",
          "type": "address"
        }
      ],
      "payable": false,
      "stateMutability": "view",
      "type": "function"
    }
  ],
  "bytecode": "0x608060405234801561001057600080fd5b50612018806100206000396000f300608060405260043610620000d3576000357c0100000000000000000000000000000000000000000000000000000000900463ffffffff1680631c315a8514620000d857806328d79f10146200013257806343013c241462000190578063485cc95514620001ee5780634e9631171462000254578063566a721e14620002da5780636f6dc5ae1462000436578063715018a614620004905780638da5cb5b14620004aa5780638f32d59b1462000504578063b3b5ea021462000536578063c4d66de814620005bc578063f2fde38b1462000602575b600080fd5b348015620000e557600080fd5b50620000f062000648565b604051808273ffffffffffffffffffffffffffffffffffffffff1673ffffffffffffffffffffffffffffffffffffffff16815260200191505060405180910390f35b3480156200013f57600080fd5b5062000176600480360381019080803573ffffffffffffffffffffffffffffffffffffffff1690602001909291905050506200066e565b604051808215151515815260200191505060405180910390f35b3480156200019d57600080fd5b50620001d4600480360381019080803573ffffffffffffffffffffffffffffffffffffffff1690602001909291905050506200079c565b604051808215151515815260200191505060405180910390f35b348015620001fb57600080fd5b5062000252600480360381019080803573ffffffffffffffffffffffffffffffffffffffff169060200190929190803573ffffffffffffffffffffffffffffffffffffffff16906020019092919050505062000916565b005b3480156200026157600080fd5b5062000298600480360381019080803573ffffffffffffffffffffffffffffffffffffffff16906020019092919050505062000adf565b604051808273ffffffffffffffffffffffffffffffffffffffff1673ffffffffffffffffffffffffffffffffffffffff16815260200191505060405180910390f35b348015620002e757600080fd5b50620003f4600480360381019080803573ffffffffffffffffffffffffffffffffffffffff1690602001909291908035906020019092919080359060200190929190803590602001909291908035906020019092919080359060200190929190803590602001909291908035600019169060200190929190803590602001908201803590602001908080601f0160208091040260200160405190810160405280939291908181526020018383808284378201915050505050509192919290803590602001908201803590602001908080601f016020809104026020016040519081016040528093929190818152602001838380828437820191505050505050919291929050505062000b8a565b604051808273ffffffffffffffffffffffffffffffffffffffff1673ffffffffffffffffffffffffffffffffffffffff16815260200191505060405180910390f35b3480156200044357600080fd5b506200044e62000ff4565b604051808273ffffffffffffffffffffffffffffffffffffffff1673ffffffffffffffffffffffffffffffffffffffff16815260200191505060405180910390f35b3480156200049d57600080fd5b50620004a86200101a565b005b348015620004b757600080fd5b50620004c2620010d9565b604051808273ffffffffffffffffffffffffffffffffffffffff1673ffffffffffffffffffffffffffffffffffffffff16815260200191505060405180910390f35b3480156200051157600080fd5b506200051c62001103565b604051808215151515815260200191505060405180910390f35b3480156200054357600080fd5b506200057a600480360381019080803573ffffffffffffffffffffffffffffffffffffffff1690602001909291905050506200115b565b604051808273ffffffffffffffffffffffffffffffffffffffff1673ffffffffffffffffffffffffffffffffffffffff16815260200191505060405180910390f35b348015620005c957600080fd5b5062000600600480360381019080803573ffffffffffffffffffffffffffffffffffffffff1690602001909291905050506200118e565b005b3480156200060f57600080fd5b5062000646600480360381019080803573ffffffffffffffffffffffffffffffffffffffff1690602001909291905050506200130a565b005b606660009054906101000a900473ffffffffffffffffffffffffffffffffffffffff1681565b60006200067a62001103565b15156200068657600080fd5b600073ffffffffffffffffffffffffffffffffffffffff168273ffffffffffffffffffffffffffffffffffffffff161415151562000752576040517f08c379a000000000000000000000000000000000000000000000000000000000815260040180806020018281038252603c8152602001807f457870656374656420706172616d6574657220605f6e6577426173654163636f81526020017f756e74602062757420697420776173206e6f7420737570706c6965640000000081525060400191505060405180910390fd5b81606660006101000a81548173ffffffffffffffffffffffffffffffffffffffff021916908373ffffffffffffffffffffffffffffffffffffffff16021790555060019050919050565b600081606860008273ffffffffffffffffffffffffffffffffffffffff1673ffffffffffffffffffffffffffffffffffffffff16815260200190815260200160002060009054906101000a900473ffffffffffffffffffffffffffffffffffffffff1673ffffffffffffffffffffffffffffffffffffffff163373ffffffffffffffffffffffffffffffffffffffff161415156200083957600080fd5b8273ffffffffffffffffffffffffffffffffffffffff16633659cfe6606660009054906101000a900473ffffffffffffffffffffffffffffffffffffffff166040518263ffffffff167c0100000000000000000000000000000000000000000000000000000000028152600401808273ffffffffffffffffffffffffffffffffffffffff1673ffffffffffffffffffffffffffffffffffffffff168152602001915050600060405180830381600087803b158015620008f757600080fd5b505af11580156200090c573d6000803e3d6000fd5b5050505050919050565b60008060019054906101000a900460ff1680620009395750620009386200132e565b5b806200095157506000809054906101000a900460ff16155b1515620009ec576040517f08c379a000000000000000000000000000000000000000000000000000000000815260040180806020018281038252602e8152602001807f436f6e747261637420696e7374616e63652068617320616c726561647920626581526020017f656e20696e697469616c697a656400000000000000000000000000000000000081525060400191505060405180910390fd5b600060019054906101000a900460ff1690506001600060016101000a81548160ff02191690831515021790555060016000806101000a81548160ff02191690831515021790555062000a3e326200118e565b82606660006101000a81548173ffffffffffffffffffffffffffffffffffffffff021916908373ffffffffffffffffffffffffffffffffffffffff16021790555081606760006101000a81548173ffffffffffffffffffffffffffffffffffffffff021916908373ffffffffffffffffffffffffffffffffffffffff16021790555080600060016101000a81548160ff021916908315150217905550505050565b60008173ffffffffffffffffffffffffffffffffffffffff16635c60da1b6040518163ffffffff167c0100000000000000000000000000000000000000000000000000000000028152600401602060405180830381600087803b15801562000b4657600080fd5b505af115801562000b5b573d6000803e3d6000fd5b505050506040513d602081101562000b7257600080fd5b81019080805190602001909291905050509050919050565b6000606060008c338d8d8d8d8d8d8d8d8d606760009054906101000a900473ffffffffffffffffffffffffffffffffffffffff16604051602401808d73ffffffffffffffffffffffffffffffffffffffff1673ffffffffffffffffffffffffffffffffffffffff1681526020018c73ffffffffffffffffffffffffffffffffffffffff1673ffffffffffffffffffffffffffffffffffffffff1681526020018b81526020018a8152602001898152602001888152602001878152602001868152602001856000191660001916815260200180602001806020018473ffffffffffffffffffffffffffffffffffffffff1673ffffffffffffffffffffffffffffffffffffffff168152602001838103835286818151815260200191508051906020019080838360005b8381101562000ccf57808201518184015260208101905062000cb2565b50505050905090810190601f16801562000cfd5780820380516001836020036101000a031916815260200191505b50838103825285818151815260200191508051906020019080838360005b8381101562000d3857808201518184015260208101905062000d1b565b50505050905090810190601f16801562000d665780820380516001836020036101000a031916815260200191505b509e5050505050505050505050505050506040516020818303038152906040527f2ec02829000000000000000000000000000000000000000000000000000000007bffffffffffffffffffffffffffffffffffffffffffffffffffffffff19166020820180517bffffffffffffffffffffffffffffffffffffffffffffffffffffffff83818316178352505050509150606660009054906101000a900473ffffffffffffffffffffffffffffffffffffffff168262000e246200143c565b808373ffffffffffffffffffffffffffffffffffffffff1673ffffffffffffffffffffffffffffffffffffffff16815260200180602001828103825283818151815260200191508051906020019080838360005b8381101562000e9557808201518184015260208101905062000e78565b50505050905090810190601f16801562000ec35780820380516001836020036101000a031916815260200191505b509350505050604051809103906000f08015801562000ee6573d6000803e3d6000fd5b5090503373ffffffffffffffffffffffffffffffffffffffff167f14cb25cca821184a88389fa7823ef6a4cd65897a89cbdcf5169542b8d790478b82604051808273ffffffffffffffffffffffffffffffffffffffff1673ffffffffffffffffffffffffffffffffffffffff16815260200191505060405180910390a233606860008373ffffffffffffffffffffffffffffffffffffffff1673ffffffffffffffffffffffffffffffffffffffff16815260200190815260200160002060006101000a81548173ffffffffffffffffffffffffffffffffffffffff021916908373ffffffffffffffffffffffffffffffffffffffff16021790555080925050509a9950505050505050505050565b606760009054906101000a900473ffffffffffffffffffffffffffffffffffffffff1681565b6200102462001103565b15156200103057600080fd5b603360009054906101000a900473ffffffffffffffffffffffffffffffffffffffff1673ffffffffffffffffffffffffffffffffffffffff167ff8df31144d9c2f0f6b59d69b8b98abd5459d07f2742c4df920b25aae33c6482060405160405180910390a26000603360006101000a81548173ffffffffffffffffffffffffffffffffffffffff021916908373ffffffffffffffffffffffffffffffffffffffff160217905550565b6000603360009054906101000a900473ffffffffffffffffffffffffffffffffffffffff16905090565b6000603360009054906101000a900473ffffffffffffffffffffffffffffffffffffffff1673ffffffffffffffffffffffffffffffffffffffff163373ffffffffffffffffffffffffffffffffffffffff1614905090565b60686020528060005260406000206000915054906101000a900473ffffffffffffffffffffffffffffffffffffffff1681565b60008060019054906101000a900460ff1680620011b15750620011b06200132e565b5b80620011c957506000809054906101000a900460ff16155b151562001264576040517f08c379a000000000000000000000000000000000000000000000000000000000815260040180806020018281038252602e8152602001807f436f6e747261637420696e7374616e63652068617320616c726561647920626581526020017f656e20696e697469616c697a656400000000000000000000000000000000000081525060400191505060405180910390fd5b600060019054906101000a900460ff1690506001600060016101000a81548160ff02191690831515021790555060016000806101000a81548160ff02191690831515021790555081603360006101000a81548173ffffffffffffffffffffffffffffffffffffffff021916908373ffffffffffffffffffffffffffffffffffffffff16021790555080600060016101000a81548160ff0219169083151502179055505050565b6200131462001103565b15156200132057600080fd5b6200132b816200133f565b50565b600080303b90506000811491505090565b600073ffffffffffffffffffffffffffffffffffffffff168173ffffffffffffffffffffffffffffffffffffffff16141515156200137c57600080fd5b8073ffffffffffffffffffffffffffffffffffffffff16603360009054906101000a900473ffffffffffffffffffffffffffffffffffffffff1673ffffffffffffffffffffffffffffffffffffffff167f8be0079c531659141344cd1fd0a4f28419497f9722a3daafe3b4186f6b6457e060405160405180910390a380603360006101000a81548173ffffffffffffffffffffffffffffffffffffffff021916908373ffffffffffffffffffffffffffffffffffffffff16021790555050565b604051610b9f806200144e8339019056006080604052604051610b9f380380610b9f8339810180604052810190808051906020019092919080518201929190505050818160405180807f6f72672e7a657070656c696e6f732e70726f78792e696d706c656d656e74617481526020017f696f6e000000000000000000000000000000000000000000000000000000000081525060230190506040518091039020600019167f7050c9e0f4ca769c69bd3a8ef740bc37934f8e2c036e5a723fd8ee048ed3f8c3600102600019161415156100c357fe5b6100db82610202640100000000026401000000009004565b600081511115610176578173ffffffffffffffffffffffffffffffffffffffff168160405180828051906020019080838360005b8381101561012a57808201518184015260208101905061010f565b50505050905090810190601f1680156101575780820380516001836020036101000a031916815260200191505b50915050600060405180830381855af4915050151561017557600080fd5b5b505060405180807f6f72672e7a657070656c696e6f732e70726f78792e61646d696e000000000000815250601a0190506040518091039020600019167f10d6a54a4754c8869d6886b5f5d7fbfa5b4522237ea5c60d11bc4e7a1ff9390b600102600019161415156101e357fe5b6101fb336102e7640100000000026401000000009004565b5050610329565b60006102208261031664010000000002610828176401000000009004565b15156102ba576040517f08c379a000000000000000000000000000000000000000000000000000000000815260040180806020018281038252603b8152602001807f43616e6e6f742073657420612070726f787920696d706c656d656e746174696f81526020017f6e20746f2061206e6f6e2d636f6e74726163742061646472657373000000000081525060400191505060405180910390fd5b7f7050c9e0f4ca769c69bd3a8ef740bc37934f8e2c036e5a723fd8ee048ed3f8c360010290508181555050565b60007f10d6a54a4754c8869d6886b5f5d7fbfa5b4522237ea5c60d11bc4e7a1ff9390b60010290508181555050565b600080823b905060008111915050919050565b610867806103386000396000f30060806040526004361061006d576000357c0100000000000000000000000000000000000000000000000000000000900463ffffffff1680633659cfe6146100775780634f1ef286146100ba5780635c60da1b146101085780638f2839701461015f578063f851a440146101a2575b6100756101f9565b005b34801561008357600080fd5b506100b8600480360381019080803573ffffffffffffffffffffffffffffffffffffffff169060200190929190505050610213565b005b610106600480360381019080803573ffffffffffffffffffffffffffffffffffffffff169060200190929190803590602001908201803590602001919091929391929390505050610268565b005b34801561011457600080fd5b5061011d610305565b604051808273ffffffffffffffffffffffffffffffffffffffff1673ffffffffffffffffffffffffffffffffffffffff16815260200191505060405180910390f35b34801561016b57600080fd5b506101a0600480360381019080803573ffffffffffffffffffffffffffffffffffffffff16906020019092919050505061035d565b005b3480156101ae57600080fd5b506101b761051b565b604051808273ffffffffffffffffffffffffffffffffffffffff1673ffffffffffffffffffffffffffffffffffffffff16815260200191505060405180910390f35b610201610573565b61021161020c61064e565b61067f565b565b61021b6106a5565b73ffffffffffffffffffffffffffffffffffffffff163373ffffffffffffffffffffffffffffffffffffffff16141561025c57610257816106d6565b610265565b6102646101f9565b5b50565b6102706106a5565b73ffffffffffffffffffffffffffffffffffffffff163373ffffffffffffffffffffffffffffffffffffffff1614156102f7576102ac836106d6565b8273ffffffffffffffffffffffffffffffffffffffff16828260405180838380828437820191505092505050600060405180830381855af491505015156102f257600080fd5b610300565b6102ff6101f9565b5b505050565b600061030f6106a5565b73ffffffffffffffffffffffffffffffffffffffff163373ffffffffffffffffffffffffffffffffffffffff1614156103515761034a61064e565b905061035a565b6103596101f9565b5b90565b6103656106a5565b73ffffffffffffffffffffffffffffffffffffffff163373ffffffffffffffffffffffffffffffffffffffff16141561050f57600073ffffffffffffffffffffffffffffffffffffffff168173ffffffffffffffffffffffffffffffffffffffff1614151515610463576040517f08c379a00000000000000000000000000000000000000000000000000000000081526004018080602001828103825260368152602001807f43616e6e6f74206368616e6765207468652061646d696e206f6620612070726f81526020017f787920746f20746865207a65726f20616464726573730000000000000000000081525060400191505060405180910390fd5b7f7e644d79422f17c01e4894b5f4f588d331ebfa28653d42ae832dc59e38c9798f61048c6106a5565b82604051808373ffffffffffffffffffffffffffffffffffffffff1673ffffffffffffffffffffffffffffffffffffffff1681526020018273ffffffffffffffffffffffffffffffffffffffff1673ffffffffffffffffffffffffffffffffffffffff1681526020019250505060405180910390a161050a81610725565b610518565b6105176101f9565b5b50565b60006105256106a5565b73ffffffffffffffffffffffffffffffffffffffff163373ffffffffffffffffffffffffffffffffffffffff161415610567576105606106a5565b9050610570565b61056f6101f9565b5b90565b61057b6106a5565b73ffffffffffffffffffffffffffffffffffffffff163373ffffffffffffffffffffffffffffffffffffffff1614151515610644576040517f08c379a00000000000000000000000000000000000000000000000000000000081526004018080602001828103825260328152602001807f43616e6e6f742063616c6c2066616c6c6261636b2066756e6374696f6e20667281526020017f6f6d207468652070726f78792061646d696e000000000000000000000000000081525060400191505060405180910390fd5b61064c610754565b565b6000807f7050c9e0f4ca769c69bd3a8ef740bc37934f8e2c036e5a723fd8ee048ed3f8c36001029050805491505090565b3660008037600080366000845af43d6000803e80600081146106a0573d6000f35b3d6000fd5b6000807f10d6a54a4754c8869d6886b5f5d7fbfa5b4522237ea5c60d11bc4e7a1ff9390b6001029050805491505090565b6106df81610756565b8073ffffffffffffffffffffffffffffffffffffffff167fbc7cd75a20ee27fd9adebab32041f755214dbc6bffa90cc0225b39da2e5c2d3b60405160405180910390a250565b60007f10d6a54a4754c8869d6886b5f5d7fbfa5b4522237ea5c60d11bc4e7a1ff9390b60010290508181555050565b565b600061076182610828565b15156107fb576040517f08c379a000000000000000000000000000000000000000000000000000000000815260040180806020018281038252603b8152602001807f43616e6e6f742073657420612070726f787920696d706c656d656e746174696f81526020017f6e20746f2061206e6f6e2d636f6e74726163742061646472657373000000000081525060400191505060405180910390fd5b7f7050c9e0f4ca769c69bd3a8ef740bc37934f8e2c036e5a723fd8ee048ed3f8c360010290508181555050565b600080823b9050600081119150509190505600a165627a7a723058207437b528c43e16109d95ae379cb365cf1f163b44f0b0f552fb00d63c9b8ab8310029a165627a7a7230582048791edfe51316b67b1c0b9ad390fb1c1707771290662622b97b791898d8a3820029",
  "source": "pragma solidity 0.4.24;\n\nimport \"openzeppelin-eth/contracts/ownership/Ownable.sol\";\nimport \"zos-lib/contracts/Initializable.sol\";\nimport \"zos-lib/contracts/upgradeability/AdminUpgradeabilityProxy.sol\";\n\nimport \"./Account.sol\";\n\n\ncontract ConvergentBeta is Initializable, Ownable {    \n    \n    event NewAccount(address account, address indexed creator);\n\n    address public baseAccount;\n    address public gasPriceOracle;\n\n    mapping (address => address) public accountToCreator;\n\n    function initialize(\n        address _baseAccount,\n        address _gasPriceOracle\n    )   public\n        initializer\n    {\n        // tx.origin is used here due to an inconsistency in zos which\n        //  uses the App.sol contract as `msg.sender`\n        // solhint-disable-next-line avoid-tx-origin\n        Ownable.initialize(tx.origin);\n\n        baseAccount = _baseAccount;\n        gasPriceOracle = _gasPriceOracle;\n    }\n\n    function setBaseAccount(address _newBaseAccount)\n        public onlyOwner returns (bool) \n    {\n        require(\n            _newBaseAccount != address(0x0),\n            \"Expected parameter `_newBaseAccount` but it was not supplied\"\n        );\n\n        baseAccount = _newBaseAccount;\n        return true;\n    }\n\n    /**\n     * @dev Create a new account with ConvergentBeta proxy set as admin.\n     * @param _metadata The content address of the metadata on IPFS.\n     */\n    function createAccount(\n        address _reserveAsset,\n        uint256 _slopeN,\n        uint256 _slopeD,\n        uint256 _exponent,\n        uint256 _spreadN,\n        uint256 _spreadD,\n        uint256 _preMint,\n        bytes32 _metadata,\n        string _name,\n        string _symbol\n    )   public returns (address)\n    {\n        bytes memory data = abi.encodeWithSignature(\n            \"initialize(address,address,uint256,uint256,uint256,uint256,uint256,uint256,bytes32,string,string,address)\",\n            _reserveAsset,\n            msg.sender,\n            _slopeN,\n            _slopeD,\n            _exponent,\n            _spreadN,\n            _spreadD,\n            _preMint,\n            _metadata,\n            _name,\n            _symbol,\n            gasPriceOracle\n        );\n        Account account = Account(new AdminUpgradeabilityProxy(baseAccount, data));\n        emit NewAccount(address(account), msg.sender);\n        accountToCreator[address(account)] = msg.sender;\n        return address(account);\n    }\n\n    modifier onlyCreator(address _account) {\n        require(\n            msg.sender == accountToCreator[_account]\n        );\n        _;\n    }\n\n    function upgradeAccount(address _account) public onlyCreator(_account) returns (bool) {\n        // This doesn't work becuase _account is a proxy\n        // and this contract is the proxy admin, so it thinks\n        // it's calling the fallback function.\n    \n        // address creator = Account(_account).creator();\n        // require(\n        //     (msg.sender == creator) || (msg.sender == owner()),\n        //     \"Only the creator of the account or Convergent Admin can upgrade an account\"\n        // );\n\n        AdminUpgradeabilityProxy(_account).upgradeTo(baseAccount);\n    }\n\n    function getImplementationForAccount(address _account)\n        public view returns (address)\n    {\n        return AdminUpgradeabilityProxy(_account).implementation();\n    }\n}\n",
  "sourcePath": "/home/volt/workspaces/convergentcx/liquid/contracts/ConvergentBeta.sol",
  "compiler": {
    "name": "solc",
    "version": "0.4.24+commit.e67f0147.Emscripten.clang"
  },
  "schemaVersion": "3.0.1",
  "updatedAt": "2019-02-13T13:36:56.934Z",
  "devdoc": {
    "methods": {
      "createAccount(address,uint256,uint256,uint256,uint256,uint256,uint256,bytes32,string,string)": {
        "details": "Create a new account with ConvergentBeta proxy set as admin.",
        "params": {
          "_metadata": "The content address of the metadata on IPFS."
        }
      },
      "initialize(address)": {
        "details": "The Ownable constructor sets the original `owner` of the contract to the sender account."
      },
      "isOwner()": {
        "return": "true if `msg.sender` is the owner of the contract."
      },
      "owner()": {
        "return": "the address of the owner."
      },
      "renounceOwnership()": {
        "details": "Allows the current owner to relinquish control of the contract."
      },
      "transferOwnership(address)": {
        "details": "Allows the current owner to transfer control of the contract to a newOwner.",
        "params": {
          "newOwner": "The address to transfer ownership to."
        }
      }
    }
  },
  "userdoc": {
    "methods": {
      "renounceOwnership()": {
        "notice": "Renouncing to ownership will leave the contract without an owner. It will not be possible to call the functions with the `onlyOwner` modifier anymore."
      }
    }
  }
}